{
  "contractName": "LendBorrowContract",
  "abi": [
    {
      "inputs": [],
      "stateMutability": "nonpayable",
      "type": "constructor"
    },
    {
      "anonymous": false,
      "inputs": [
        {
          "indexed": true,
          "internalType": "uint256",
          "name": "_lenderId",
          "type": "uint256"
        },
        {
          "indexed": true,
          "internalType": "address",
          "name": "_lender",
          "type": "address"
        },
        {
          "indexed": true,
          "internalType": "uint256",
          "name": "_amount",
          "type": "uint256"
        },
        {
          "indexed": false,
          "internalType": "uint256",
          "name": "_rateOfReturn",
          "type": "uint256"
        },
        {
          "indexed": false,
          "internalType": "uint256",
          "name": "_interestEarnedPerDay",
          "type": "uint256"
        },
        {
          "indexed": false,
          "internalType": "uint256",
          "name": "_lendingDurationInSecs",
          "type": "uint256"
        },
        {
          "indexed": false,
          "internalType": "uint256",
          "name": "_startTimeInSecs",
          "type": "uint256"
        }
      ],
      "name": "LogLenderCreation",
      "type": "event"
    },
    {
      "anonymous": false,
      "inputs": [
        {
          "indexed": true,
          "internalType": "uint256",
          "name": "_lenderId",
          "type": "uint256"
        },
        {
          "indexed": true,
          "internalType": "address",
          "name": "_lender",
          "type": "address"
        },
        {
          "indexed": true,
          "internalType": "uint256",
          "name": "_interestRedeemed",
          "type": "uint256"
        },
        {
          "indexed": false,
          "internalType": "uint256",
          "name": "_latestTimeOfInterestRedeemed",
          "type": "uint256"
        }
      ],
      "name": "LogLenderInterestRedemption",
      "type": "event"
    },
    {
      "anonymous": false,
      "inputs": [
        {
          "indexed": true,
          "internalType": "uint256",
          "name": "_lenderId",
          "type": "uint256"
        },
        {
          "indexed": true,
          "internalType": "address",
          "name": "_lender",
          "type": "address"
        },
        {
          "indexed": true,
          "internalType": "uint256",
          "name": "_lenderAmount",
          "type": "uint256"
        },
        {
          "indexed": false,
          "internalType": "uint256",
          "name": "_interestNotRedeemed",
          "type": "uint256"
        }
      ],
      "name": "LogLenderMatured",
      "type": "event"
    },
    {
      "anonymous": false,
      "inputs": [
        {
          "indexed": true,
          "internalType": "uint256",
          "name": "_liquidityAvailable",
          "type": "uint256"
        }
      ],
      "name": "LogLiquidityAvailable",
      "type": "event"
    },
    {
      "anonymous": false,
      "inputs": [
        {
          "indexed": true,
          "internalType": "uint256",
          "name": "_loanId",
          "type": "uint256"
        },
        {
          "indexed": true,
          "internalType": "address",
          "name": "_borrower",
          "type": "address"
        },
        {
          "indexed": false,
          "internalType": "uint256",
          "name": "_amount",
          "type": "uint256"
        },
        {
          "indexed": false,
          "internalType": "uint256",
          "name": "_interest",
          "type": "uint256"
        },
        {
          "indexed": false,
          "internalType": "uint256",
          "name": "_fullAmount",
          "type": "uint256"
        },
        {
          "indexed": false,
          "internalType": "uint256",
          "name": "_monthlyDepositAmount",
          "type": "uint256"
        },
        {
          "indexed": false,
          "internalType": "uint256",
          "name": "_monthlyInterest",
          "type": "uint256"
        },
        {
          "indexed": true,
          "internalType": "address",
          "name": "_nftContract",
          "type": "address"
        },
        {
          "indexed": false,
          "internalType": "uint256",
          "name": "_nftTokenId",
          "type": "uint256"
        }
      ],
      "name": "LogLoanCreation",
      "type": "event"
    },
    {
      "anonymous": false,
      "inputs": [
        {
          "indexed": true,
          "internalType": "uint256",
          "name": "_loanId",
          "type": "uint256"
        },
        {
          "indexed": true,
          "internalType": "address",
          "name": "_borrower",
          "type": "address"
        },
        {
          "indexed": false,
          "internalType": "uint256",
          "name": "_depositAmount",
          "type": "uint256"
        },
        {
          "indexed": false,
          "internalType": "uint256",
          "name": "_remainingAmount",
          "type": "uint256"
        }
      ],
      "name": "LogLoanDeposit",
      "type": "event"
    },
    {
      "anonymous": false,
      "inputs": [
        {
          "indexed": true,
          "internalType": "address",
          "name": "_borrower",
          "type": "address"
        },
        {
          "indexed": true,
          "internalType": "uint256",
          "name": "_loanId",
          "type": "uint256"
        },
        {
          "indexed": true,
          "internalType": "uint256",
          "name": "_depositAmount",
          "type": "uint256"
        },
        {
          "indexed": false,
          "internalType": "uint256",
          "name": "_remainingAmount",
          "type": "uint256"
        }
      ],
      "name": "LogLoanPaid",
      "type": "event"
    },
    {
      "anonymous": false,
      "inputs": [
        {
          "indexed": true,
          "internalType": "address",
          "name": "previousOwner",
          "type": "address"
        },
        {
          "indexed": true,
          "internalType": "address",
          "name": "newOwner",
          "type": "address"
        }
      ],
      "name": "OwnershipTransferred",
      "type": "event"
    },
    {
      "inputs": [
        {
          "internalType": "uint256",
          "name": "",
          "type": "uint256"
        }
      ],
      "name": "borrowingInterestRates",
      "outputs": [
        {
          "internalType": "uint256",
          "name": "",
          "type": "uint256"
        }
      ],
      "stateMutability": "view",
      "type": "function",
      "constant": true
    },
    {
      "inputs": [
        {
          "internalType": "uint256",
          "name": "",
          "type": "uint256"
        }
      ],
      "name": "lenders",
      "outputs": [
        {
          "internalType": "uint256",
          "name": "Id",
          "type": "uint256"
        },
        {
          "internalType": "address",
          "name": "lender",
          "type": "address"
        },
        {
          "internalType": "uint256",
          "name": "lendingAmount",
          "type": "uint256"
        },
        {
          "internalType": "uint256",
          "name": "rateOfReturn",
          "type": "uint256"
        },
        {
          "internalType": "uint256",
          "name": "interestEarnedPerDay",
          "type": "uint256"
        },
        {
          "internalType": "uint256",
          "name": "startTimeInSecs",
          "type": "uint256"
        },
        {
          "internalType": "uint256",
          "name": "durationInSecs",
          "type": "uint256"
        },
        {
          "internalType": "enum LendBorrowContract.LenderStatus",
          "name": "status",
          "type": "uint8"
        },
        {
          "internalType": "uint256",
          "name": "latestTimeOfInterestRedeemedInSecs",
          "type": "uint256"
        }
      ],
      "stateMutability": "view",
      "type": "function",
      "constant": true
    },
    {
      "inputs": [
        {
          "internalType": "uint256",
          "name": "",
          "type": "uint256"
        }
      ],
      "name": "lendingReturnRates",
      "outputs": [
        {
          "internalType": "uint256",
          "name": "",
          "type": "uint256"
        }
      ],
      "stateMutability": "view",
      "type": "function",
      "constant": true
    },
    {
      "inputs": [
        {
          "internalType": "uint256",
          "name": "",
          "type": "uint256"
        }
      ],
      "name": "loans",
      "outputs": [
        {
          "internalType": "uint256",
          "name": "Id",
          "type": "uint256"
        },
        {
          "internalType": "uint256",
          "name": "loanAmount",
          "type": "uint256"
        },
        {
          "internalType": "uint256",
          "name": "fullAmount",
          "type": "uint256"
        },
        {
          "internalType": "uint256",
          "name": "remainingAmount",
          "type": "uint256"
        },
        {
          "internalType": "uint256",
          "name": "interestAmountPerMonth",
          "type": "uint256"
        },
        {
          "internalType": "uint256",
          "name": "interest",
          "type": "uint256"
        },
        {
          "internalType": "address",
          "name": "borrower",
          "type": "address"
        },
        {
          "internalType": "enum LendBorrowContract.LoanStatus",
          "name": "status",
          "type": "uint8"
        },
        {
          "internalType": "uint256",
          "name": "creationTimeInSecs",
          "type": "uint256"
        },
        {
          "internalType": "uint256",
          "name": "durationInYears",
          "type": "uint256"
        },
        {
          "components": [
            {
              "internalType": "address",
              "name": "contractAddress",
              "type": "address"
            },
            {
              "internalType": "uint256",
              "name": "tokenId",
              "type": "uint256"
            }
          ],
          "internalType": "struct LendBorrowContract.Nft",
          "name": "nftInfo",
          "type": "tuple"
        },
        {
          "internalType": "uint256",
          "name": "monthlyDeposit",
          "type": "uint256"
        }
      ],
      "stateMutability": "view",
      "type": "function",
      "constant": true
    },
    {
      "inputs": [],
      "name": "owner",
      "outputs": [
        {
          "internalType": "address",
          "name": "",
          "type": "address"
        }
      ],
      "stateMutability": "view",
      "type": "function",
      "constant": true
    },
    {
      "inputs": [],
      "name": "renounceOwnership",
      "outputs": [],
      "stateMutability": "nonpayable",
      "type": "function"
    },
    {
      "inputs": [
        {
          "internalType": "address",
          "name": "newOwner",
          "type": "address"
        }
      ],
      "name": "transferOwnership",
      "outputs": [],
      "stateMutability": "nonpayable",
      "type": "function"
    },
    {
      "stateMutability": "payable",
      "type": "receive",
      "payable": true
    },
    {
      "inputs": [
        {
          "internalType": "address",
          "name": "_address",
          "type": "address"
        }
      ],
      "name": "getAccountType",
      "outputs": [
        {
          "internalType": "string",
          "name": "",
          "type": "string"
        }
      ],
      "stateMutability": "view",
      "type": "function",
      "constant": true
    },
    {
      "inputs": [],
      "name": "getLiquidityAvailable",
      "outputs": [
        {
          "internalType": "uint256",
          "name": "",
          "type": "uint256"
        }
      ],
      "stateMutability": "view",
      "type": "function",
      "constant": true
    },
    {
      "inputs": [],
      "name": "getAllLoaners",
      "outputs": [
        {
          "components": [
            {
              "internalType": "uint256",
              "name": "Id",
              "type": "uint256"
            },
            {
              "internalType": "uint256",
              "name": "loanAmount",
              "type": "uint256"
            },
            {
              "internalType": "uint256",
              "name": "fullAmount",
              "type": "uint256"
            },
            {
              "internalType": "uint256",
              "name": "remainingAmount",
              "type": "uint256"
            },
            {
              "internalType": "uint256",
              "name": "interestAmountPerMonth",
              "type": "uint256"
            },
            {
              "internalType": "uint256",
              "name": "interest",
              "type": "uint256"
            },
            {
              "internalType": "address",
              "name": "borrower",
              "type": "address"
            },
            {
              "internalType": "enum LendBorrowContract.LoanStatus",
              "name": "status",
              "type": "uint8"
            },
            {
              "internalType": "uint256",
              "name": "creationTimeInSecs",
              "type": "uint256"
            },
            {
              "internalType": "uint256",
              "name": "durationInYears",
              "type": "uint256"
            },
            {
              "components": [
                {
                  "internalType": "address",
                  "name": "contractAddress",
                  "type": "address"
                },
                {
                  "internalType": "uint256",
                  "name": "tokenId",
                  "type": "uint256"
                }
              ],
              "internalType": "struct LendBorrowContract.Nft",
              "name": "nftInfo",
              "type": "tuple"
            },
            {
              "internalType": "uint256",
              "name": "monthlyDeposit",
              "type": "uint256"
            }
          ],
          "internalType": "struct LendBorrowContract.Loan[]",
          "name": "",
          "type": "tuple[]"
        }
      ],
      "stateMutability": "view",
      "type": "function",
      "constant": true
    },
    {
      "inputs": [],
      "name": "getAllLenders",
      "outputs": [
        {
          "components": [
            {
              "internalType": "uint256",
              "name": "Id",
              "type": "uint256"
            },
            {
              "internalType": "address",
              "name": "lender",
              "type": "address"
            },
            {
              "internalType": "uint256",
              "name": "lendingAmount",
              "type": "uint256"
            },
            {
              "internalType": "uint256",
              "name": "rateOfReturn",
              "type": "uint256"
            },
            {
              "internalType": "uint256",
              "name": "interestEarnedPerDay",
              "type": "uint256"
            },
            {
              "internalType": "uint256",
              "name": "startTimeInSecs",
              "type": "uint256"
            },
            {
              "internalType": "uint256",
              "name": "durationInSecs",
              "type": "uint256"
            },
            {
              "internalType": "enum LendBorrowContract.LenderStatus",
              "name": "status",
              "type": "uint8"
            },
            {
              "internalType": "uint256",
              "name": "latestTimeOfInterestRedeemedInSecs",
              "type": "uint256"
            }
          ],
          "internalType": "struct LendBorrowContract.Lend[]",
          "name": "",
          "type": "tuple[]"
        }
      ],
      "stateMutability": "view",
      "type": "function",
      "constant": true
    },
    {
      "inputs": [],
      "name": "getUsersLoan",
      "outputs": [
        {
          "components": [
            {
              "internalType": "uint256",
              "name": "Id",
              "type": "uint256"
            },
            {
              "internalType": "uint256",
              "name": "loanAmount",
              "type": "uint256"
            },
            {
              "internalType": "uint256",
              "name": "fullAmount",
              "type": "uint256"
            },
            {
              "internalType": "uint256",
              "name": "remainingAmount",
              "type": "uint256"
            },
            {
              "internalType": "uint256",
              "name": "interestAmountPerMonth",
              "type": "uint256"
            },
            {
              "internalType": "uint256",
              "name": "interest",
              "type": "uint256"
            },
            {
              "internalType": "address",
              "name": "borrower",
              "type": "address"
            },
            {
              "internalType": "enum LendBorrowContract.LoanStatus",
              "name": "status",
              "type": "uint8"
            },
            {
              "internalType": "uint256",
              "name": "creationTimeInSecs",
              "type": "uint256"
            },
            {
              "internalType": "uint256",
              "name": "durationInYears",
              "type": "uint256"
            },
            {
              "components": [
                {
                  "internalType": "address",
                  "name": "contractAddress",
                  "type": "address"
                },
                {
                  "internalType": "uint256",
                  "name": "tokenId",
                  "type": "uint256"
                }
              ],
              "internalType": "struct LendBorrowContract.Nft",
              "name": "nftInfo",
              "type": "tuple"
            },
            {
              "internalType": "uint256",
              "name": "monthlyDeposit",
              "type": "uint256"
            }
          ],
          "internalType": "struct LendBorrowContract.Loan[]",
          "name": "",
          "type": "tuple[]"
        }
      ],
      "stateMutability": "view",
      "type": "function",
      "constant": true
    },
    {
      "inputs": [],
      "name": "getUsersLendings",
      "outputs": [
        {
          "components": [
            {
              "internalType": "uint256",
              "name": "Id",
              "type": "uint256"
            },
            {
              "internalType": "address",
              "name": "lender",
              "type": "address"
            },
            {
              "internalType": "uint256",
              "name": "lendingAmount",
              "type": "uint256"
            },
            {
              "internalType": "uint256",
              "name": "rateOfReturn",
              "type": "uint256"
            },
            {
              "internalType": "uint256",
              "name": "interestEarnedPerDay",
              "type": "uint256"
            },
            {
              "internalType": "uint256",
              "name": "startTimeInSecs",
              "type": "uint256"
            },
            {
              "internalType": "uint256",
              "name": "durationInSecs",
              "type": "uint256"
            },
            {
              "internalType": "enum LendBorrowContract.LenderStatus",
              "name": "status",
              "type": "uint8"
            },
            {
              "internalType": "uint256",
              "name": "latestTimeOfInterestRedeemedInSecs",
              "type": "uint256"
            }
          ],
          "internalType": "struct LendBorrowContract.Lend[]",
          "name": "",
          "type": "tuple[]"
        }
      ],
      "stateMutability": "view",
      "type": "function",
      "constant": true
    },
    {
      "inputs": [
        {
          "internalType": "uint256",
          "name": "_loanAmount",
          "type": "uint256"
        },
        {
          "internalType": "uint256",
          "name": "_loanDuration",
          "type": "uint256"
        },
        {
          "internalType": "address",
          "name": "_nftAddress",
          "type": "address"
        },
        {
          "internalType": "uint256",
          "name": "_nftTokenId",
          "type": "uint256"
        },
        {
          "internalType": "uint256",
          "name": "_nftFloorPrice",
          "type": "uint256"
        }
      ],
      "name": "createLoan",
      "outputs": [
        {
          "internalType": "uint256",
          "name": "",
          "type": "uint256"
        }
      ],
      "stateMutability": "payable",
      "type": "function",
      "payable": true
    },
    {
      "inputs": [
        {
          "internalType": "uint256",
          "name": "_loanId",
          "type": "uint256"
        }
      ],
      "name": "payCompleteLoan",
      "outputs": [],
      "stateMutability": "payable",
      "type": "function",
      "payable": true
    },
    {
      "inputs": [
        {
          "internalType": "uint256",
          "name": "_loanId",
          "type": "uint256"
        }
      ],
      "name": "payLoanMonthlyDeposit",
      "outputs": [],
      "stateMutability": "payable",
      "type": "function",
      "payable": true
    },
    {
      "inputs": [
        {
          "internalType": "uint256",
          "name": "_lendingDurationInYears",
          "type": "uint256"
        }
      ],
      "name": "createLender",
      "outputs": [
        {
          "internalType": "uint256",
          "name": "",
          "type": "uint256"
        }
      ],
      "stateMutability": "payable",
      "type": "function",
      "payable": true
    },
    {
      "inputs": [
        {
          "internalType": "uint256",
          "name": "_lenderId",
          "type": "uint256"
        }
      ],
      "name": "redeemLendersInterest",
      "outputs": [],
      "stateMutability": "payable",
      "type": "function",
      "payable": true
    },
    {
      "inputs": [
        {
          "internalType": "uint256",
          "name": "_lenderId",
          "type": "uint256"
        }
      ],
      "name": "retrieveLendersFund",
      "outputs": [],
      "stateMutability": "payable",
      "type": "function",
      "payable": true
    }
  ],
  "bytecode": "0x608060405234801562000010575f80fd5b506200003162000025620000a460201b60201c565b620000ab60201b60201c565b600180819055505f600481905550600a60055f600181526020019081526020015f2081905550600b60055f600281526020019081526020015f2081905550600560065f600181526020019081526020015f20819055506006805f600281526020019081526020015f20819055506200016c565b5f33905090565b5f805f9054906101000a900473ffffffffffffffffffffffffffffffffffffffff169050815f806101000a81548173ffffffffffffffffffffffffffffffffffffffff021916908373ffffffffffffffffffffffffffffffffffffffff1602179055508173ffffffffffffffffffffffffffffffffffffffff168173ffffffffffffffffffffffffffffffffffffffff167f8be0079c531659141344cd1fd0a4f28419497f9722a3daafe3b4186f6b6457e060405160405180910390a35050565b614e33806200017a5f395ff3fe608060405260043610610117575f3560e01c80638449cc0c1161009f578063a1666b5411610063578063a1666b541461037a578063aafc5a3c146103a4578063ae203146146103c0578063e1ec3c68146103fc578063f2fde38b146104435761011e565b80638449cc0c1461029657806388055fb3146102c65780638da5cb5b146102e2578063929eea211461030c5780639662e44c146103505761011e565b8063547706dd116100e6578063547706dd146101dc57806368f17e11146101f85780636d8b94e814610234578063715018a6146102645780637c69973c1461027a5761011e565b806306e7297914610122578063159d970b1461014c57806329eee7eb146101885780634696e5f3146101b25761011e565b3661011e57005b5f80fd5b34801561012d575f80fd5b5061013661046b565b6040516101439190613874565b60405180910390f35b348015610157575f80fd5b50610172600480360381019061016d91906138c2565b610623565b60405161017f91906138fc565b60405180910390f35b348015610193575f80fd5b5061019c610638565b6040516101a99190613ab9565b60405180910390f35b3480156101bd575f80fd5b506101c6610913565b6040516101d391906138fc565b60405180910390f35b6101f660048036038101906101f191906138c2565b61091c565b005b348015610203575f80fd5b5061021e600480360381019061021991906138c2565b610d94565b60405161022b91906138fc565b60405180910390f35b61024e600480360381019061024991906138c2565b610da9565b60405161025b91906138fc565b60405180910390f35b34801561026f575f80fd5b5061027861122c565b005b610294600480360381019061028f91906138c2565b61123f565b005b6102b060048036038101906102ab9190613b03565b611654565b6040516102bd91906138fc565b60405180910390f35b6102e060048036038101906102db91906138c2565b611d19565b005b3480156102ed575f80fd5b506102f6612207565b6040516103039190613b89565b60405180910390f35b348015610317575f80fd5b50610332600480360381019061032d91906138c2565b61222e565b60405161034799989796959493929190613bb1565b60405180910390f35b34801561035b575f80fd5b506103646122b2565b6040516103719190613874565b60405180910390f35b348015610385575f80fd5b5061038e612614565b60405161039b9190613ab9565b60405180910390f35b6103be60048036038101906103b991906138c2565b612745565b005b3480156103cb575f80fd5b506103e660048036038101906103e19190613c3c565b612c28565b6040516103f39190613cf1565b60405180910390f35b348015610407575f80fd5b50610422600480360381019061041d91906138c2565b612ed3565b60405161043a9c9b9a99989796959493929190613d4d565b60405180910390f35b34801561044e575f80fd5b5061046960048036038101906104649190613c3c565b612fd2565b005b60606002805480602002602001604051908101604052809291908181526020015f905b8282101561061a578382905f5260205f2090600c0201604051806101800160405290815f82015481526020016001820154815260200160028201548152602001600382015481526020016004820154815260200160058201548152602001600682015f9054906101000a900473ffffffffffffffffffffffffffffffffffffffff1673ffffffffffffffffffffffffffffffffffffffff1673ffffffffffffffffffffffffffffffffffffffff1681526020016006820160149054906101000a900460ff16600181111561056557610564613660565b5b600181111561057757610576613660565b5b81526020016007820154815260200160088201548152602001600982016040518060400160405290815f82015f9054906101000a900473ffffffffffffffffffffffffffffffffffffffff1673ffffffffffffffffffffffffffffffffffffffff1673ffffffffffffffffffffffffffffffffffffffff1681526020016001820154815250508152602001600b820154815250508152602001906001019061048e565b50505050905090565b6006602052805f5260405f205f915090505481565b60605f60038054905067ffffffffffffffff81111561065a57610659613e05565b5b60405190808252806020026020018201604052801561069357816020015b6106806134c3565b8152602001906001900390816106785790505b5090505f805b60038054905081101561085b573373ffffffffffffffffffffffffffffffffffffffff16600382815481106106d1576106d0613e32565b5b905f5260205f2090600902016001015f9054906101000a900473ffffffffffffffffffffffffffffffffffffffff1673ffffffffffffffffffffffffffffffffffffffff1603610848576003818154811061072f5761072e613e32565b5b905f5260205f209060090201604051806101200160405290815f8201548152602001600182015f9054906101000a900473ffffffffffffffffffffffffffffffffffffffff1673ffffffffffffffffffffffffffffffffffffffff1673ffffffffffffffffffffffffffffffffffffffff1681526020016002820154815260200160038201548152602001600482015481526020016005820154815260200160068201548152602001600782015f9054906101000a900460ff1660018111156107fb576107fa613660565b5b600181111561080d5761080c613660565b5b815260200160088201548152505083838151811061082e5761082d613e32565b5b6020026020010181905250818061084490613e8c565b9250505b808061085390613e8c565b915050610699565b505f8167ffffffffffffffff81111561087757610876613e05565b5b6040519080825280602002602001820160405280156108b057816020015b61089d6134c3565b8152602001906001900390816108955790505b5090505f5b82811015610909578381815181106108d0576108cf613e32565b5b60200260200101518282815181106108eb576108ea613e32565b5b6020026020010181905250808061090190613e8c565b9150506108b5565b5080935050505090565b5f600454905090565b600281815481106109305761092f613e32565b5b905f5260205f2090600c02016006015f9054906101000a900473ffffffffffffffffffffffffffffffffffffffff1673ffffffffffffffffffffffffffffffffffffffff163373ffffffffffffffffffffffffffffffffffffffff16146109cc576040517f08c379a00000000000000000000000000000000000000000000000000000000081526004016109c390613f43565b60405180910390fd5b600281815481106109e0576109df613e32565b5b905f5260205f2090600c0201600301543414610a31576040517f08c379a0000000000000000000000000000000000000000000000000000000008152600401610a2890613fd1565b60405180910390fd5b5f6001811115610a4457610a43613660565b5b60028281548110610a5857610a57613e32565b5b905f5260205f2090600c020160060160149054906101000a900460ff166001811115610a8757610a86613660565b5b14610ac7576040517f08c379a0000000000000000000000000000000000000000000000000000000008152600401610abe90614039565b60405180910390fd5b5f3073ffffffffffffffffffffffffffffffffffffffff1634604051610aec90614084565b5f6040518083038185875af1925050503d805f8114610b26576040519150601f19603f3d011682016040523d82523d5f602084013e610b2b565b606091505b5050905080610b6f576040517f08c379a0000000000000000000000000000000000000000000000000000000008152600401610b66906140e2565b60405180910390fd5b60028281548110610b8357610b82613e32565b5b905f5260205f2090600c02016009015f015f9054906101000a900473ffffffffffffffffffffffffffffffffffffffff1673ffffffffffffffffffffffffffffffffffffffff166323b872dd303360028681548110610be557610be4613e32565b5b905f5260205f2090600c0201600901600101546040518463ffffffff1660e01b8152600401610c1693929190614100565b5f604051808303815f87803b158015610c2d575f80fd5b505af1158015610c3f573d5f803e3d5ffd5b50505050600160028381548110610c5957610c58613e32565b5b905f5260205f2090600c020160060160146101000a81548160ff02191690836001811115610c8a57610c89613660565b5b02179055505f60028381548110610ca457610ca3613e32565b5b905f5260205f2090600c02016003018190555060028281548110610ccb57610cca613e32565b5b905f5260205f2090600c020160010154600454610ce89190614135565b60048190555034823373ffffffffffffffffffffffffffffffffffffffff167f65d6ad82ff9abb27c70147ab3919dd5ae6bf4d541ea2ba245afe7b554aeefc3660028681548110610d3c57610d3b613e32565b5b905f5260205f2090600c020160030154604051610d5991906138fc565b60405180910390a46004547fa050751736fed002d83abc87e07f97401bf301145e7f4eb2e2718ab10a6d5d3c60405160405180910390a25050565b6005602052805f5260405f205f915090505481565b5f803411610dec576040517f08c379a0000000000000000000000000000000000000000000000000000000008152600401610de3906141d8565b60405180910390fd5b604051602001610dfb9061424a565b60405160208183030381529060405280519060200120610e1a33612c28565b604051602001610e2a919061428e565b6040516020818303038152906040528051906020012003610e80576040517f08c379a0000000000000000000000000000000000000000000000000000000008152600401610e779061433a565b60405180910390fd5b5f60038054905090505f60065f8581526020019081526020015f205490505f60648234610ead9190614358565b610eb791906143c6565b90505f610ec48287613054565b90505f3073ffffffffffffffffffffffffffffffffffffffff1634604051610eeb90614084565b5f6040518083038185875af1925050503d805f8114610f25576040519150601f19603f3d011682016040523d82523d5f602084013e610f2a565b606091505b505090505f603c80601861016d8b610f429190614358565b610f4c9190614358565b610f569190614358565b610f609190614358565b905081610fa2576040517f08c379a0000000000000000000000000000000000000000000000000000000008152600401610f99906140e2565b60405180910390fd5b60036040518061012001604052808881526020013373ffffffffffffffffffffffffffffffffffffffff1681526020013481526020018781526020018581526020014281526020018381526020015f600181111561100357611002613660565b5b815260200142815250908060018154018082558091505060019003905f5260205f2090600902015f909190919091505f820151815f01556020820151816001015f6101000a81548173ffffffffffffffffffffffffffffffffffffffff021916908373ffffffffffffffffffffffffffffffffffffffff16021790555060408201518160020155606082015181600301556080820151816004015560a0820151816005015560c0820151816006015560e0820151816007015f6101000a81548160ff021916908360018111156110dc576110db613660565b5b02179055506101008201518160080155505083346110fa91906143f6565b6004546111079190614135565b600481905550343373ffffffffffffffffffffffffffffffffffffffff16877f1f2634d93613be6e3bb0ab1fd8adac3d5a4cf849d3a08560becd32e82ac8d0b860038a8154811061115b5761115a613e32565b5b905f5260205f2090600902016003015460038b8154811061117f5761117e613e32565b5b905f5260205f2090600902016004015460038c815481106111a3576111a2613e32565b5b905f5260205f2090600902016006015460038d815481106111c7576111c6613e32565b5b905f5260205f209060090201600501546040516111e79493929190614429565b60405180910390a46004547fa050751736fed002d83abc87e07f97401bf301145e7f4eb2e2718ab10a6d5d3c60405160405180910390a2859650505050505050919050565b611234613076565b61123d5f6130f4565b565b6112476131b5565b6003818154811061125b5761125a613e32565b5b905f5260205f2090600902016001015f9054906101000a900473ffffffffffffffffffffffffffffffffffffffff1673ffffffffffffffffffffffffffffffffffffffff163373ffffffffffffffffffffffffffffffffffffffff16146112f7576040517f08c379a00000000000000000000000000000000000000000000000000000000081526004016112ee906144b6565b60405180910390fd5b426003828154811061130c5761130b613e32565b5b905f5260205f20906009020160050154600383815481106113305761132f613e32565b5b905f5260205f2090600902016006015461134a9190614135565b101561138b576040517f08c379a00000000000000000000000000000000000000000000000000000000081526004016113829061456a565b60405180910390fd5b5f62015180600383815481106113a4576113a3613e32565b5b905f5260205f20906009020160080154426113bf91906143f6565b6113c991906143c6565b9050600181101561140f576040517f08c379a0000000000000000000000000000000000000000000000000000000008152600401611406906145f8565b60405180910390fd5b5f816003848154811061142557611424613e32565b5b905f5260205f2090600902016004015461143f9190614358565b9050603c806018846114519190614358565b61145b9190614358565b6114659190614358565b6003848154811061147957611478613e32565b5b905f5260205f209060090201600801546114939190614135565b600384815481106114a7576114a6613e32565b5b905f5260205f209060090201600801819055505f3373ffffffffffffffffffffffffffffffffffffffff16826040516114df90614084565b5f6040518083038185875af1925050503d805f8114611519576040519150601f19603f3d011682016040523d82523d5f602084013e61151e565b606091505b5050905080611562576040517f08c379a0000000000000000000000000000000000000000000000000000000008152600401611559906140e2565b60405180910390fd5b816003858154811061157757611576613e32565b5b905f5260205f2090600902016001015f9054906101000a900473ffffffffffffffffffffffffffffffffffffffff1673ffffffffffffffffffffffffffffffffffffffff16857f5ccbe759e2154705f56638a6d44d4ef7bd3bac0fbb9855bda3f8be485ddb3645600388815481106115f2576115f1613e32565b5b905f5260205f2090600902016008015460405161160f91906138fc565b60405180910390a46004547fa050751736fed002d83abc87e07f97401bf301145e7f4eb2e2718ab10a6d5d3c60405160405180910390a2505050611651613204565b50565b5f61165d6131b5565b3373ffffffffffffffffffffffffffffffffffffffff168473ffffffffffffffffffffffffffffffffffffffff16636352211e856040518263ffffffff1660e01b81526004016116ad91906138fc565b602060405180830381865afa1580156116c8573d5f803e3d5ffd5b505050506040513d601f19601f820116820180604052508101906116ec919061462a565b73ffffffffffffffffffffffffffffffffffffffff1614611742576040517f08c379a00000000000000000000000000000000000000000000000000000000081526004016117399061469f565b60405180910390fd5b81861115611785576040517f08c379a000000000000000000000000000000000000000000000000000000000815260040161177c90614753565b60405180910390fd5b6004548611156117ca576040517f08c379a00000000000000000000000000000000000000000000000000000000081526004016117c190614807565b60405180910390fd5b5f6117d433612c28565b90506040516020016117e59061424a565b604051602081830303815290604052805190602001208160405160200161180c919061428e565b6040516020818303038152906040528051906020012003611862576040517f08c379a0000000000000000000000000000000000000000000000000000000008152600401611859906148bb565b60405180910390fd5b60405160200161187190614923565b6040516020818303038152906040528051906020012081604051602001611898919061428e565b60405160208183030381529060405280519060200120036118ee576040517f08c379a00000000000000000000000000000000000000000000000000000000081526004016118e59061433a565b60405180910390fd5b3073ffffffffffffffffffffffffffffffffffffffff168573ffffffffffffffffffffffffffffffffffffffff1663081812fc866040518263ffffffff1660e01b815260040161193e91906138fc565b602060405180830381865afa158015611959573d5f803e3d5ffd5b505050506040513d601f19601f8201168201806040525081019061197d919061462a565b73ffffffffffffffffffffffffffffffffffffffff16146119d3576040517f08c379a00000000000000000000000000000000000000000000000000000000081526004016119ca906149a7565b60405180910390fd5b8473ffffffffffffffffffffffffffffffffffffffff166323b872dd3330876040518463ffffffff1660e01b8152600401611a1093929190614100565b5f604051808303815f87803b158015611a27575f80fd5b505af1158015611a39573d5f803e3d5ffd5b5050505086600454611a4b91906143f6565b6004819055505f3373ffffffffffffffffffffffffffffffffffffffff1688604051611a7690614084565b5f6040518083038185875af1925050503d805f8114611ab0576040519150601f19603f3d011682016040523d82523d5f602084013e611ab5565b606091505b5050905080611af9576040517f08c379a0000000000000000000000000000000000000000000000000000000008152600401611af0906140e2565b60405180910390fd5b5f611b068989898961320d565b905060028181548110611b1c57611b1b613e32565b5b905f5260205f2090600c02016009015f015f9054906101000a900473ffffffffffffffffffffffffffffffffffffffff1673ffffffffffffffffffffffffffffffffffffffff1660028281548110611b7757611b76613e32565b5b905f5260205f2090600c02016006015f9054906101000a900473ffffffffffffffffffffffffffffffffffffffff1673ffffffffffffffffffffffffffffffffffffffff16827f58370ce1e111cef197325eb5ad6343fa3acad99982c5c7bc9719c8d89d0b82c960028581548110611bf257611bf1613e32565b5b905f5260205f2090600c02016001015460028681548110611c1657611c15613e32565b5b905f5260205f2090600c02016005015460028781548110611c3a57611c39613e32565b5b905f5260205f2090600c02016002015460028881548110611c5e57611c5d613e32565b5b905f5260205f2090600c0201600b015460028981548110611c8257611c81613e32565b5b905f5260205f2090600c02016004015460028a81548110611ca657611ca5613e32565b5b905f5260205f2090600c020160090160010154604051611ccb969594939291906149c5565b60405180910390a46004547fa050751736fed002d83abc87e07f97401bf301145e7f4eb2e2718ab10a6d5d3c60405160405180910390a2809350505050611d10613204565b95945050505050565b611d216131b5565b60038181548110611d3557611d34613e32565b5b905f5260205f2090600902016001015f9054906101000a900473ffffffffffffffffffffffffffffffffffffffff1673ffffffffffffffffffffffffffffffffffffffff163373ffffffffffffffffffffffffffffffffffffffff1614611dd1576040517f08c379a0000000000000000000000000000000000000000000000000000000008152600401611dc8906144b6565b60405180910390fd5b5f6001811115611de457611de3613660565b5b60038281548110611df857611df7613e32565b5b905f5260205f2090600902016007015f9054906101000a900460ff166001811115611e2657611e25613660565b5b14611e66576040517f08c379a0000000000000000000000000000000000000000000000000000000008152600401611e5d90614a6e565b60405180910390fd5b4260038281548110611e7b57611e7a613e32565b5b905f5260205f2090600902016005015460038381548110611e9f57611e9e613e32565b5b905f5260205f20906009020160060154611eb99190614135565b1115611efa576040517f08c379a0000000000000000000000000000000000000000000000000000000008152600401611ef190614ad6565b60405180910390fd5b5f6201518060038381548110611f1357611f12613e32565b5b905f5260205f2090600902016005015460038481548110611f3757611f36613e32565b5b905f5260205f20906009020160080154611f5191906143f6565b60038481548110611f6557611f64613e32565b5b905f5260205f20906009020160060154611f7f91906143f6565b611f8991906143c6565b60038381548110611f9d57611f9c613e32565b5b905f5260205f20906009020160040154611fb79190614358565b9050600160038381548110611fcf57611fce613e32565b5b905f5260205f2090600902016007015f6101000a81548160ff02191690836001811115611fff57611ffe613660565b5b02179055506003828154811061201857612017613e32565b5b905f5260205f2090600902016002015460045461203591906143f6565b6004819055505f600383815481106120505761204f613e32565b5b905f5260205f209060090201600201548261206b9190614135565b90505f3373ffffffffffffffffffffffffffffffffffffffff168260405161209290614084565b5f6040518083038185875af1925050503d805f81146120cc576040519150601f19603f3d011682016040523d82523d5f602084013e6120d1565b606091505b5050905080612115576040517f08c379a000000000000000000000000000000000000000000000000000000000815260040161210c906140e2565b60405180910390fd5b6004547fa050751736fed002d83abc87e07f97401bf301145e7f4eb2e2718ab10a6d5d3c60405160405180910390a26003848154811061215857612157613e32565b5b905f5260205f209060090201600201546003858154811061217c5761217b613e32565b5b905f5260205f2090600902016001015f9054906101000a900473ffffffffffffffffffffffffffffffffffffffff1673ffffffffffffffffffffffffffffffffffffffff16857ffa0d48c9476cd063510b6da30920a2e669e07841b4ed6a81096f5155d991ee18866040516121f191906138fc565b60405180910390a4505050612204613204565b50565b5f805f9054906101000a900473ffffffffffffffffffffffffffffffffffffffff16905090565b6003818154811061223d575f80fd5b905f5260205f2090600902015f91509050805f015490806001015f9054906101000a900473ffffffffffffffffffffffffffffffffffffffff1690806002015490806003015490806004015490806005015490806006015490806007015f9054906101000a900460ff16908060080154905089565b60605f60028054905067ffffffffffffffff8111156122d4576122d3613e05565b5b60405190808252806020026020018201604052801561230d57816020015b6122fa61352e565b8152602001906001900390816122f25790505b5090505f805b60028054905081101561255c573373ffffffffffffffffffffffffffffffffffffffff166002828154811061234b5761234a613e32565b5b905f5260205f2090600c02016006015f9054906101000a900473ffffffffffffffffffffffffffffffffffffffff1673ffffffffffffffffffffffffffffffffffffffff160361254957600281815481106123a9576123a8613e32565b5b905f5260205f2090600c0201604051806101800160405290815f82015481526020016001820154815260200160028201548152602001600382015481526020016004820154815260200160058201548152602001600682015f9054906101000a900473ffffffffffffffffffffffffffffffffffffffff1673ffffffffffffffffffffffffffffffffffffffff1673ffffffffffffffffffffffffffffffffffffffff1681526020016006820160149054906101000a900460ff16600181111561247657612475613660565b5b600181111561248857612487613660565b5b81526020016007820154815260200160088201548152602001600982016040518060400160405290815f82015f9054906101000a900473ffffffffffffffffffffffffffffffffffffffff1673ffffffffffffffffffffffffffffffffffffffff1673ffffffffffffffffffffffffffffffffffffffff1681526020016001820154815250508152602001600b8201548152505083838151811061252f5761252e613e32565b5b6020026020010181905250818061254590613e8c565b9250505b808061255490613e8c565b915050612313565b505f8167ffffffffffffffff81111561257857612577613e05565b5b6040519080825280602002602001820160405280156125b157816020015b61259e61352e565b8152602001906001900390816125965790505b5090505f5b8281101561260a578381815181106125d1576125d0613e32565b5b60200260200101518282815181106125ec576125eb613e32565b5b6020026020010181905250808061260290613e8c565b9150506125b6565b5080935050505090565b60606003805480602002602001604051908101604052809291908181526020015f905b8282101561273c578382905f5260205f209060090201604051806101200160405290815f8201548152602001600182015f9054906101000a900473ffffffffffffffffffffffffffffffffffffffff1673ffffffffffffffffffffffffffffffffffffffff1673ffffffffffffffffffffffffffffffffffffffff1681526020016002820154815260200160038201548152602001600482015481526020016005820154815260200160068201548152602001600782015f9054906101000a900460ff16600181111561270d5761270c613660565b5b600181111561271f5761271e613660565b5b815260200160088201548152505081526020019060010190612637565b50505050905090565b5f600181111561275857612757613660565b5b6002828154811061276c5761276b613e32565b5b905f5260205f2090600c020160060160149054906101000a900460ff16600181111561279b5761279a613660565b5b146127db576040517f08c379a00000000000000000000000000000000000000000000000000000000081526004016127d290614b3e565b60405180910390fd5b600281815481106127ef576127ee613e32565b5b905f5260205f2090600c0201600b0154341015612841576040517f08c379a000000000000000000000000000000000000000000000000000000000815260040161283890614bcc565b60405180910390fd5b6002818154811061285557612854613e32565b5b905f5260205f2090600c0201600201543411156128a7576040517f08c379a000000000000000000000000000000000000000000000000000000000815260040161289e90614c5a565b60405180910390fd5b600281815481106128bb576128ba613e32565b5b905f5260205f2090600c02016006015f9054906101000a900473ffffffffffffffffffffffffffffffffffffffff1673ffffffffffffffffffffffffffffffffffffffff163373ffffffffffffffffffffffffffffffffffffffff1614612957576040517f08c379a000000000000000000000000000000000000000000000000000000000815260040161294e90613f43565b60405180910390fd5b5f3073ffffffffffffffffffffffffffffffffffffffff163460405161297c90614084565b5f6040518083038185875af1925050503d805f81146129b6576040519150601f19603f3d011682016040523d82523d5f602084013e6129bb565b606091505b50509050806129ff576040517f08c379a00000000000000000000000000000000000000000000000000000000081526004016129f6906140e2565b60405180910390fd5b3460028381548110612a1457612a13613e32565b5b905f5260205f2090600c020160030154612a2e91906143f6565b60028381548110612a4257612a41613e32565b5b905f5260205f2090600c0201600301819055503373ffffffffffffffffffffffffffffffffffffffff16827f5c1df0303f45203f3c43f22c0e3c511ab6617363bb7c6bacd2bd23b8a81707a03460028681548110612aa357612aa2613e32565b5b905f5260205f2090600c020160030154604051612ac1929190614c78565b60405180910390a35f60028381548110612ade57612add613e32565b5b905f5260205f2090600c02016003015403612bb357600160028381548110612b0957612b08613e32565b5b905f5260205f2090600c020160060160146101000a81548160ff02191690836001811115612b3a57612b39613660565b5b021790555034823373ffffffffffffffffffffffffffffffffffffffff167f65d6ad82ff9abb27c70147ab3919dd5ae6bf4d541ea2ba245afe7b554aeefc3660028681548110612b8d57612b8c613e32565b5b905f5260205f2090600c020160030154604051612baa91906138fc565b60405180910390a45b60028281548110612bc757612bc6613e32565b5b905f5260205f2090600c02016004015434612be291906143f6565b600454612bef9190614135565b6004819055506004547fa050751736fed002d83abc87e07f97401bf301145e7f4eb2e2718ab10a6d5d3c60405160405180910390a25050565b60605f5b600280549050811015612d5f578273ffffffffffffffffffffffffffffffffffffffff1660028281548110612c6457612c63613e32565b5b905f5260205f2090600c02016006015f9054906101000a900473ffffffffffffffffffffffffffffffffffffffff1673ffffffffffffffffffffffffffffffffffffffff16148015612d0957505f6001811115612cc457612cc3613660565b5b60028281548110612cd857612cd7613e32565b5b905f5260205f2090600c020160060160149054906101000a900460ff166001811115612d0757612d06613660565b5b145b15612d4c576040518060400160405280600881526020017f626f72726f776572000000000000000000000000000000000000000000000000815250915050612ece565b8080612d5790613e8c565b915050612c2c565b505f5b600380549050811015612e94578273ffffffffffffffffffffffffffffffffffffffff1660038281548110612d9a57612d99613e32565b5b905f5260205f2090600902016001015f9054906101000a900473ffffffffffffffffffffffffffffffffffffffff1673ffffffffffffffffffffffffffffffffffffffff16148015612e3e57505f6001811115612dfa57612df9613660565b5b60038281548110612e0e57612e0d613e32565b5b905f5260205f2090600902016007015f9054906101000a900460ff166001811115612e3c57612e3b613660565b5b145b15612e81576040518060400160405280600681526020017f6c656e6465720000000000000000000000000000000000000000000000000000815250915050612ece565b8080612e8c90613e8c565b915050612d62565b506040518060400160405280600881526020017f496e41637469766500000000000000000000000000000000000000000000000081525090505b919050565b60028181548110612ee2575f80fd5b905f5260205f2090600c02015f91509050805f015490806001015490806002015490806003015490806004015490806005015490806006015f9054906101000a900473ffffffffffffffffffffffffffffffffffffffff16908060060160149054906101000a900460ff1690806007015490806008015490806009016040518060400160405290815f82015f9054906101000a900473ffffffffffffffffffffffffffffffffffffffff1673ffffffffffffffffffffffffffffffffffffffff1673ffffffffffffffffffffffffffffffffffffffff1681526020016001820154815250509080600b015490508c565b612fda613076565b5f73ffffffffffffffffffffffffffffffffffffffff168173ffffffffffffffffffffffffffffffffffffffff1603613048576040517f08c379a000000000000000000000000000000000000000000000000000000000815260040161303f90614d0f565b60405180910390fd5b613051816130f4565b50565b5f8161016d6130639190614358565b8361306e91906143c6565b905092915050565b61307e613486565b73ffffffffffffffffffffffffffffffffffffffff1661309c612207565b73ffffffffffffffffffffffffffffffffffffffff16146130f2576040517f08c379a00000000000000000000000000000000000000000000000000000000081526004016130e990614d77565b60405180910390fd5b565b5f805f9054906101000a900473ffffffffffffffffffffffffffffffffffffffff169050815f806101000a81548173ffffffffffffffffffffffffffffffffffffffff021916908373ffffffffffffffffffffffffffffffffffffffff1602179055508173ffffffffffffffffffffffffffffffffffffffff168173ffffffffffffffffffffffffffffffffffffffff167f8be0079c531659141344cd1fd0a4f28419497f9722a3daafe3b4186f6b6457e060405160405180910390a35050565b6002600154036131fa576040517f08c379a00000000000000000000000000000000000000000000000000000000081526004016131f190614ddf565b60405180910390fd5b6002600181905550565b60018081905550565b5f8060028054905090505f60055f8781526020019081526020015f205490505f613237888361348d565b90505f600c886132479190614358565b8261325291906143c6565b90505f828a6132619190614135565b90505f61327a82600c8c6132759190614358565b6134ae565b905060026040518061018001604052808881526020018d81526020018481526020018481526020018581526020018781526020013373ffffffffffffffffffffffffffffffffffffffff1681526020015f60018111156132dd576132dc613660565b5b81526020014281526020018c815260200160405180604001604052808d73ffffffffffffffffffffffffffffffffffffffff1681526020018c815250815260200183815250908060018154018082558091505060019003905f5260205f2090600c02015f909190919091505f820151815f01556020820151816001015560408201518160020155606082015181600301556080820151816004015560a0820151816005015560c0820151816006015f6101000a81548173ffffffffffffffffffffffffffffffffffffffff021916908373ffffffffffffffffffffffffffffffffffffffff16021790555060e08201518160060160146101000a81548160ff021916908360018111156133f3576133f2613660565b5b021790555061010082015181600701556101208201518160080155610140820151816009015f820151815f015f6101000a81548173ffffffffffffffffffffffffffffffffffffffff021916908373ffffffffffffffffffffffffffffffffffffffff16021790555060208201518160010155505061016082015181600b01555050859650505050505050949350505050565b5f33905090565b5f6064828461349c9190614358565b6134a691906143c6565b905092915050565b5f81836134bb91906143c6565b905092915050565b6040518061012001604052805f81526020015f73ffffffffffffffffffffffffffffffffffffffff1681526020015f81526020015f81526020015f81526020015f81526020015f81526020015f600181111561352257613521613660565b5b81526020015f81525090565b6040518061018001604052805f81526020015f81526020015f81526020015f81526020015f81526020015f81526020015f73ffffffffffffffffffffffffffffffffffffffff1681526020015f600181111561358d5761358c613660565b5b81526020015f81526020015f81526020016135a66135b2565b81526020015f81525090565b60405180604001604052805f73ffffffffffffffffffffffffffffffffffffffff1681526020015f81525090565b5f81519050919050565b5f82825260208201905092915050565b5f819050602082019050919050565b5f819050919050565b61361b81613609565b82525050565b5f73ffffffffffffffffffffffffffffffffffffffff82169050919050565b5f61364a82613621565b9050919050565b61365a81613640565b82525050565b7f4e487b71000000000000000000000000000000000000000000000000000000005f52602160045260245ffd5b6002811061369e5761369d613660565b5b50565b5f8190506136ae8261368d565b919050565b5f6136bd826136a1565b9050919050565b6136cd816136b3565b82525050565b604082015f8201516136e75f850182613651565b5060208201516136fa6020850182613612565b50505050565b6101a082015f8201516137155f850182613612565b5060208201516137286020850182613612565b50604082015161373b6040850182613612565b50606082015161374e6060850182613612565b5060808201516137616080850182613612565b5060a082015161377460a0850182613612565b5060c082015161378760c0850182613651565b5060e082015161379a60e08501826136c4565b506101008201516137af610100850182613612565b506101208201516137c4610120850182613612565b506101408201516137d96101408501826136d3565b506101608201516137ee610180850182613612565b50505050565b5f6137ff8383613700565b6101a08301905092915050565b5f602082019050919050565b5f613822826135e0565b61382c81856135ea565b9350613837836135fa565b805f5b8381101561386757815161384e88826137f4565b97506138598361380c565b92505060018101905061383a565b5085935050505092915050565b5f6020820190508181035f83015261388c8184613818565b905092915050565b5f80fd5b6138a181613609565b81146138ab575f80fd5b50565b5f813590506138bc81613898565b92915050565b5f602082840312156138d7576138d6613894565b5b5f6138e4848285016138ae565b91505092915050565b6138f681613609565b82525050565b5f60208201905061390f5f8301846138ed565b92915050565b5f81519050919050565b5f82825260208201905092915050565b5f819050602082019050919050565b6002811061394f5761394e613660565b5b50565b5f81905061395f8261393e565b919050565b5f61396e82613952565b9050919050565b61397e81613964565b82525050565b61012082015f8201516139995f850182613612565b5060208201516139ac6020850182613651565b5060408201516139bf6040850182613612565b5060608201516139d26060850182613612565b5060808201516139e56080850182613612565b5060a08201516139f860a0850182613612565b5060c0820151613a0b60c0850182613612565b5060e0820151613a1e60e0850182613975565b50610100820151613a33610100850182613612565b50505050565b5f613a448383613984565b6101208301905092915050565b5f602082019050919050565b5f613a6782613915565b613a71818561391f565b9350613a7c8361392f565b805f5b83811015613aac578151613a938882613a39565b9750613a9e83613a51565b925050600181019050613a7f565b5085935050505092915050565b5f6020820190508181035f830152613ad18184613a5d565b905092915050565b613ae281613640565b8114613aec575f80fd5b50565b5f81359050613afd81613ad9565b92915050565b5f805f805f60a08688031215613b1c57613b1b613894565b5b5f613b29888289016138ae565b9550506020613b3a888289016138ae565b9450506040613b4b88828901613aef565b9350506060613b5c888289016138ae565b9250506080613b6d888289016138ae565b9150509295509295909350565b613b8381613640565b82525050565b5f602082019050613b9c5f830184613b7a565b92915050565b613bab81613964565b82525050565b5f61012082019050613bc55f83018c6138ed565b613bd2602083018b613b7a565b613bdf604083018a6138ed565b613bec60608301896138ed565b613bf960808301886138ed565b613c0660a08301876138ed565b613c1360c08301866138ed565b613c2060e0830185613ba2565b613c2e6101008301846138ed565b9a9950505050505050505050565b5f60208284031215613c5157613c50613894565b5b5f613c5e84828501613aef565b91505092915050565b5f81519050919050565b5f82825260208201905092915050565b5f5b83811015613c9e578082015181840152602081019050613c83565b5f8484015250505050565b5f601f19601f8301169050919050565b5f613cc382613c67565b613ccd8185613c71565b9350613cdd818560208601613c81565b613ce681613ca9565b840191505092915050565b5f6020820190508181035f830152613d098184613cb9565b905092915050565b613d1a816136b3565b82525050565b604082015f820151613d345f850182613651565b506020820151613d476020850182613612565b50505050565b5f6101a082019050613d615f83018f6138ed565b613d6e602083018e6138ed565b613d7b604083018d6138ed565b613d88606083018c6138ed565b613d95608083018b6138ed565b613da260a083018a6138ed565b613daf60c0830189613b7a565b613dbc60e0830188613d11565b613dca6101008301876138ed565b613dd86101208301866138ed565b613de6610140830185613d20565b613df46101808301846138ed565b9d9c50505050505050505050505050565b7f4e487b71000000000000000000000000000000000000000000000000000000005f52604160045260245ffd5b7f4e487b71000000000000000000000000000000000000000000000000000000005f52603260045260245ffd5b7f4e487b71000000000000000000000000000000000000000000000000000000005f52601160045260245ffd5b5f613e9682613609565b91507fffffffffffffffffffffffffffffffffffffffffffffffffffffffffffffffff8203613ec857613ec7613e5f565b5b600182019050919050565b7f596f75206d757374206265207468652061737369676e656420626f72726f77655f8201527f7220666f722074686973206c6f616e0000000000000000000000000000000000602082015250565b5f613f2d602f83613c71565b9150613f3882613ed3565b604082019050919050565b5f6020820190508181035f830152613f5a81613f21565b9050919050565b7f596f75206d75737420706179207468652066756c6c206c6f616e20616d6f756e5f8201527f7420696e636c7564696e6720696e746572657374000000000000000000000000602082015250565b5f613fbb603483613c71565b9150613fc682613f61565b604082019050919050565b5f6020820190508181035f830152613fe881613faf565b9050919050565b7f4c6f616e20737461747573206d757374206265204143544956450000000000005f82015250565b5f614023601a83613c71565b915061402e82613fef565b602082019050919050565b5f6020820190508181035f83015261405081614017565b9050919050565b5f81905092915050565b50565b5f61406f5f83614057565b915061407a82614061565b5f82019050919050565b5f61408e82614064565b9150819050919050565b7f4572726f723a205472616e73666572206661696c65642e0000000000000000005f82015250565b5f6140cc601783613c71565b91506140d782614098565b602082019050919050565b5f6020820190508181035f8301526140f9816140c0565b9050919050565b5f6060820190506141135f830186613b7a565b6141206020830185613b7a565b61412d60408301846138ed565b949350505050565b5f61413f82613609565b915061414a83613609565b925082820190508082111561416257614161613e5f565b5b92915050565b7f506c6561736520656e74657220612076616c696420616d6f756e7420746f206c5f8201527f656e640000000000000000000000000000000000000000000000000000000000602082015250565b5f6141c2602383613c71565b91506141cd82614168565b604082019050919050565b5f6020820190508181035f8301526141ef816141b6565b9050919050565b5f81905092915050565b7f626f72726f7765720000000000000000000000000000000000000000000000005f82015250565b5f6142346008836141f6565b915061423f82614200565b600882019050919050565b5f61425482614228565b9150819050919050565b5f61426882613c67565b61427281856141f6565b9350614282818560208601613c81565b80840191505092915050565b5f614299828461425e565b915081905092915050565b7f536f7272792c20796f752063616e2065697468657220626520616e20616374695f8201527f7665206c6f616e6572206f722061206c656e646572206174206120676976656e60208201527f2074696d652e0000000000000000000000000000000000000000000000000000604082015250565b5f614324604683613c71565b915061432f826142a4565b606082019050919050565b5f6020820190508181035f83015261435181614318565b9050919050565b5f61436282613609565b915061436d83613609565b925082820261437b81613609565b9150828204841483151761439257614391613e5f565b5b5092915050565b7f4e487b71000000000000000000000000000000000000000000000000000000005f52601260045260245ffd5b5f6143d082613609565b91506143db83613609565b9250826143eb576143ea614399565b5b828204905092915050565b5f61440082613609565b915061440b83613609565b925082820390508181111561442357614422613e5f565b5b92915050565b5f60808201905061443c5f8301876138ed565b61444960208301866138ed565b61445660408301856138ed565b61446360608301846138ed565b95945050505050565b7f596f75206d757374206265207468652061737369676e6564206c656e646572005f82015250565b5f6144a0601f83613c71565b91506144ab8261446c565b602082019050919050565b5f6020820190508181035f8301526144cd81614494565b9050919050565b7f54686973206c656e64696e672066756e6420686173206d6174757265642c20705f8201527f6c65617365207265717565737420746f2072656369657665207468652066756e60208201527f6473206261636b00000000000000000000000000000000000000000000000000604082015250565b5f614554604783613c71565b915061455f826144d4565b606082019050919050565b5f6020820190508181035f83015261458181614548565b9050919050565b7f696e746572657374206973206561726e656420696e20323420686f7572732c205f8201527f706c6561736520636865636b206261636b206c61746572000000000000000000602082015250565b5f6145e2603783613c71565b91506145ed82614588565b604082019050919050565b5f6020820190508181035f83015261460f816145d6565b9050919050565b5f8151905061462481613ad9565b92915050565b5f6020828403121561463f5761463e613894565b5b5f61464c84828501614616565b91505092915050565b7f4e6f7420746865206f776e6572206f66204e46542e00000000000000000000005f82015250565b5f614689601583613c71565b915061469482614655565b602082019050919050565b5f6020820190508181035f8301526146b68161467d565b9050919050565b7f536f7272792c2077652063616e6e6f7420617070726f76652074686973206c6f5f8201527f616e2e205468652070726f76696465204e465420636f6c6c61746572616c207660208201527f616c756573206c657373207468616e20746865206c6f616e2e00000000000000604082015250565b5f61473d605983613c71565b9150614748826146bd565b606082019050919050565b5f6020820190508181035f83015261476a81614731565b9050919050565b7f536f7272792c20776520646f6e74206861766520656e6f756768206c697175695f8201527f646974792061742074686973206d6f6d656e7420746f2066756e64207468697360208201527f206c6f616e2e0000000000000000000000000000000000000000000000000000604082015250565b5f6147f1604683613c71565b91506147fc82614771565b606082019050919050565b5f6020820190508181035f83015261481e816147e5565b9050919050565b7f596f75206861766520616e206f75747374616e64696e67206c6f616e2c2063615f8201527f6e6e6f74206372656174652061206e6577206c6f616e2061742074686973206d60208201527f6f6d656e742e0000000000000000000000000000000000000000000000000000604082015250565b5f6148a5604683613c71565b91506148b082614825565b606082019050919050565b5f6020820190508181035f8301526148d281614899565b9050919050565b7f6c656e64657200000000000000000000000000000000000000000000000000005f82015250565b5f61490d6006836141f6565b9150614918826148d9565b600682019050919050565b5f61492d82614901565b9150819050919050565b7f596f75206e65656420746f207365742074686520636f6e7472616374206173205f8201527f616e20617070726f766564206164647265737320666f72204e46540000000000602082015250565b5f614991603b83613c71565b915061499c82614937565b604082019050919050565b5f6020820190508181035f8301526149be81614985565b9050919050565b5f60c0820190506149d85f8301896138ed565b6149e560208301886138ed565b6149f260408301876138ed565b6149ff60608301866138ed565b614a0c60808301856138ed565b614a1960a08301846138ed565b979650505050505050565b7f6c656e64696e672066756e64206973206e6f74206163746976650000000000005f82015250565b5f614a58601a83613c71565b9150614a6382614a24565b602082019050919050565b5f6020820190508181035f830152614a8581614a4c565b9050919050565b7f6c656e64696e672066756e64206973206e6f74206d61747572656420796574005f82015250565b5f614ac0601f83613c71565b9150614acb82614a8c565b602082019050919050565b5f6020820190508181035f830152614aed81614ab4565b9050919050565b7f4c6f616e20737461747573206d757374206265204163746976650000000000005f82015250565b5f614b28601a83613c71565b9150614b3382614af4565b602082019050919050565b5f6020820190508181035f830152614b5581614b1c565b9050919050565b7f596f75206d757374206465706f73697420616d6f756e742061746c65617374205f8201527f746865206d6f6e74686c79206465706f73697420616d6f756e74200000000000602082015250565b5f614bb6603b83613c71565b9150614bc182614b5c565b604082019050919050565b5f6020820190508181035f830152614be381614baa565b9050919050565b7f596f7572206465706f73697420616d6f756e74206578636565647320796f75725f8201527f206c6f616e20616d6f756e740000000000000000000000000000000000000000602082015250565b5f614c44602c83613c71565b9150614c4f82614bea565b604082019050919050565b5f6020820190508181035f830152614c7181614c38565b9050919050565b5f604082019050614c8b5f8301856138ed565b614c9860208301846138ed565b9392505050565b7f4f776e61626c653a206e6577206f776e657220697320746865207a65726f20615f8201527f6464726573730000000000000000000000000000000000000000000000000000602082015250565b5f614cf9602683613c71565b9150614d0482614c9f565b604082019050919050565b5f6020820190508181035f830152614d2681614ced565b9050919050565b7f4f776e61626c653a2063616c6c6572206973206e6f7420746865206f776e65725f82015250565b5f614d61602083613c71565b9150614d6c82614d2d565b602082019050919050565b5f6020820190508181035f830152614d8e81614d55565b9050919050565b7f5265656e7472616e637947756172643a207265656e7472616e742063616c6c005f82015250565b5f614dc9601f83613c71565b9150614dd482614d95565b602082019050919050565b5f6020820190508181035f830152614df681614dbd565b905091905056fea2646970667358221220e823855c8943b464a9d782cf0ed7b5a442627a0145f8ebe1c620d8a66f7ab05364736f6c63430008150033",
  "immutableReferences": {},
  "source": "// SPDX-License-Identifier: MIT\r\npragma solidity ^0.8.0;\r\n\r\nimport \"@openzeppelin/contracts/token/ERC721/ERC721.sol\";\r\nimport \"@openzeppelin/contracts/access/Ownable.sol\";\r\nimport \"@openzeppelin/contracts/security/ReentrancyGuard.sol\";\r\nimport \"@openzeppelin/contracts/interfaces/IERC721.sol\";\r\n\r\ncontract LendBorrowContract is Ownable, ReentrancyGuard {\r\n\r\n    enum LoanStatus {\r\n        ACTIVE,\r\n        REPAID\r\n    }\r\n\r\n    enum LenderStatus {\r\n        ACTIVE,\r\n        MATURED\r\n    }\r\n\r\n    struct Nft {\r\n        address contractAddress;\r\n        uint tokenId;\r\n    }\r\n\r\n    struct Loan {\r\n        uint Id;\r\n        uint loanAmount;\r\n        uint fullAmount;\r\n        uint remainingAmount;\r\n        uint interestAmountPerMonth;\r\n        uint interest;\r\n        address borrower;\r\n        LoanStatus status;\r\n        uint creationTimeInSecs;\r\n        uint durationInYears;\r\n        Nft nftInfo;\r\n        uint monthlyDeposit;\r\n    }\r\n\r\n    struct Lend {\r\n        uint Id;\r\n        address lender;\r\n        uint lendingAmount;\r\n        uint rateOfReturn;\r\n        uint interestEarnedPerDay; \r\n        uint startTimeInSecs;\r\n        uint durationInSecs; \r\n        LenderStatus status;\r\n        uint latestTimeOfInterestRedeemedInSecs; \r\n    }\r\n\r\n    Loan[] public loans;\r\n    Lend[] public lenders;\r\n\r\n    uint liquidityAvailable;\r\n\r\n    mapping(uint => uint) public borrowingInterestRates;  \r\n    mapping(uint => uint) public lendingReturnRates; \r\n\r\n    // emit function for logging \r\n    event LogLoanCreation(uint indexed _loanId, address indexed _borrower, uint _amount, uint _interest, uint _fullAmount, uint _monthlyDepositAmount, uint _monthlyInterest, address indexed _nftContract, uint _nftTokenId );\r\n    event LogLoanDeposit(uint indexed _loanId, address indexed _borrower, uint _depositAmount, uint _remainingAmount);\r\n    event LogLoanPaid(address indexed _borrower, uint indexed _loanId, uint indexed _depositAmount, uint _remainingAmount);\r\n\r\n    event LogLenderCreation(uint indexed _lenderId,address indexed _lender, uint indexed _amount, uint _rateOfReturn, uint _interestEarnedPerDay, uint  _lendingDurationInSecs, uint _startTimeInSecs);\r\n    event LogLenderInterestRedemption(uint indexed _lenderId, address indexed _lender, uint indexed _interestRedeemed, uint _latestTimeOfInterestRedeemed);\r\n    event LogLenderMatured(uint indexed _lenderId, address indexed _lender, uint indexed _lenderAmount, uint _interestNotRedeemed);\r\n    event LogLiquidityAvailable(uint indexed _liquidityAvailable);\r\n\r\n    constructor() {\r\n\r\n      liquidityAvailable = 0;\r\n    \r\n      borrowingInterestRates[1] = 10; // 1 year => 10% interest\r\n      borrowingInterestRates[2] = 11; // 2 year => 11% interest\r\n\r\n      lendingReturnRates[1] = 5; // 1 year => 5% return\r\n      lendingReturnRates[2] = 6;// 2 year => 6% return\r\n\r\n    }\r\n\r\n    receive() external payable {}\r\n\r\n    function getAccountType(address _address) public view returns (string memory ) { \r\n\r\n        for(uint i=0; i < loans.length; i++) {\r\n\r\n            if(loans[i].borrower == _address && loans[i].status == LoanStatus.ACTIVE ) {\r\n\r\n                return \"borrower\";\r\n            }\r\n        }\r\n        \r\n        for(uint i=0; i < lenders.length; i++) {\r\n\r\n            if(lenders[i].lender == _address && lenders[i].status == LenderStatus.ACTIVE ) {\r\n\r\n                return \"lender\";\r\n            }\r\n        }\r\n\r\n        return \"InActive\";\r\n    }\r\n\r\n    function getLiquidityAvailable() external view returns (uint) {\r\n\r\n        return liquidityAvailable;\r\n    }\r\n\r\n     // Method to get all Loaners\r\n    function getAllLoaners() external view returns (Loan [] memory) {\r\n\r\n        return loans;\r\n    }\r\n\r\n    // Method to get all lenders\r\n    function getAllLenders() external view returns (Lend [] memory) {\r\n\r\n        return lenders;\r\n    }\r\n\r\n    // Method to get all Loaners\r\n    function getUsersLoan() external view returns (Loan [] memory) {\r\n        Loan[] memory temporary = new Loan[](loans.length);\r\n        uint counter = 0;\r\n        for(uint i=0; i < loans.length; i++) {\r\n            if(loans[i].borrower == msg.sender) {\r\n                temporary[counter] = loans[i];\r\n                counter++;\r\n            }\r\n        }\r\n\r\n        Loan[] memory result = new Loan[](counter);\r\n        for(uint i=0; i < counter; i++) {\r\n            result[i] = temporary[i];\r\n        }\r\n        \r\n        return result;\r\n    }\r\n\r\n    // Method to get all lenders\r\n    function getUsersLendings() external view returns (Lend [] memory) {\r\n        Lend[] memory temporary = new Lend[](lenders.length);\r\n        uint counter = 0;\r\n        for(uint i=0; i<lenders.length; i++) {\r\n            if(lenders[i].lender == msg.sender) {\r\n                temporary[counter] = lenders[i];\r\n                counter++;\r\n            }\r\n        }\r\n\r\n        Lend[] memory result = new Lend[](counter);\r\n        for(uint i=0; i < counter; i++) {\r\n            result[i] = temporary[i];\r\n        }\r\n        \r\n        return result;\r\n    }\r\n\r\n    // to do function to calculate full amount\r\n    function calculateTotalInterestOwedByBorrower(uint _loanAmount, uint _interestRate) internal pure returns (uint) {\r\n\r\n       return ((_loanAmount * _interestRate)/100);\r\n    }\r\n\r\n    // to do monthly deposit calc\r\n    function calculateMonthlyLoanDeposit(uint _fullAmount, uint _loanDurationInMonths) internal pure returns (uint) {\r\n\r\n      return _fullAmount/ _loanDurationInMonths;    \r\n    }\r\n\r\n    function createLoan (uint _loanAmount, uint _loanDuration, address _nftAddress, uint _nftTokenId, uint _nftFloorPrice\r\n    ) external payable nonReentrant returns (uint) {\r\n\r\n        require(IERC721(_nftAddress).ownerOf(_nftTokenId) == msg.sender, \"Not the owner of NFT.\");\r\n\r\n        require(_loanAmount <= _nftFloorPrice, \"Sorry, we cannot approve this loan. The provide NFT collateral values less than the loan.\");\r\n\r\n        require(_loanAmount <= liquidityAvailable, \"Sorry, we dont have enough liquidity at this moment to fund this loan.\");\r\n\r\n        string memory accountType = getAccountType(msg.sender);\r\n\r\n        require(keccak256(abi.encodePacked(accountType)) != keccak256(abi.encodePacked(\"borrower\")), \"You have an outstanding loan, cannot create a new loan at this moment.\");\r\n        \r\n        require(keccak256(abi.encodePacked(accountType)) != keccak256(abi.encodePacked(\"lender\")), \"Sorry, you can either be an active loaner or a lender at a given time.\");\r\n        \r\n        require(IERC721(_nftAddress).getApproved(_nftTokenId) == address(this), \"You need to set the contract as an approved address for NFT\");\r\n\r\n        // transfer NFT - the owner has approved this smart contract to execute transfer from \r\n        IERC721(_nftAddress).transferFrom(msg.sender, address(this), _nftTokenId);\r\n       \r\n        // update liquidity value  \r\n        liquidityAvailable = liquidityAvailable - _loanAmount;\r\n        \r\n         // transfer funds to the caller\r\n        (bool success, ) = msg.sender.call{ value:_loanAmount }(\"\");\r\n\r\n        require(success, \"Error: Transfer failed.\");\r\n\r\n        uint loanId = addLoan(_loanAmount, _loanDuration, _nftAddress,_nftTokenId);\r\n        \r\n        emit LogLoanCreation(loanId,loans[loanId].borrower, loans[loanId].loanAmount, loans[loanId].interest, loans[loanId].fullAmount,\r\n        loans[loanId].monthlyDeposit, loans[loanId].interestAmountPerMonth, loans[loanId].nftInfo.contractAddress, loans[loanId].nftInfo.tokenId);\r\n\r\n        emit LogLiquidityAvailable(liquidityAvailable);\r\n        \r\n        return loanId;\r\n    }\r\n\r\n    function addLoan( uint _loanAmount, uint _loanDuration, address _nftAddress, uint _nftTokenId) internal returns (uint)\r\n    {\r\n        uint loanId = loans.length;\r\n\r\n        uint interestRate = borrowingInterestRates[_loanDuration];\r\n\r\n        uint interestAmount = calculateTotalInterestOwedByBorrower(_loanAmount, interestRate);\r\n\r\n        uint interestPerMonth = interestAmount/ (_loanDuration * 12);\r\n\r\n        uint fullAmount = _loanAmount + interestAmount;\r\n\r\n        uint monthlyDeposit = calculateMonthlyLoanDeposit(fullAmount, _loanDuration * 12);\r\n\r\n            loans.push(\r\n                Loan(\r\n                    loanId, \r\n                    _loanAmount,\r\n                    fullAmount,\r\n                    fullAmount,  // initially remaining amount equals fullAmount\r\n                    interestPerMonth,\r\n                    interestRate, \r\n                    msg.sender,\r\n                    LoanStatus.ACTIVE,\r\n                    block.timestamp,\r\n                    _loanDuration,\r\n                    Nft(_nftAddress, _nftTokenId),\r\n                    monthlyDeposit\r\n                ));\r\n\r\n            return loanId;\r\n    }\r\n\r\n    // method for borrowers to pay entire amount\r\n    function payCompleteLoan(uint _loanId) external payable {\r\n\r\n        require(msg.sender == loans[_loanId].borrower, \"You must be the assigned borrower for this loan\");\r\n\r\n        require(msg.value == (loans[_loanId].remainingAmount), \"You must pay the full loan amount including interest\");\r\n\r\n        require(loans[_loanId].status == LoanStatus.ACTIVE, \"Loan status must be ACTIVE\");\r\n\r\n        (bool success, ) = payable(address(this)).call{value: msg.value}(\"\");\r\n        require(success, \"Error: Transfer failed.\");\r\n\r\n        IERC721(loans[_loanId].nftInfo.contractAddress).transferFrom(address(this), msg.sender, loans[_loanId].nftInfo.tokenId);\r\n    \r\n        loans[_loanId].status = LoanStatus.REPAID;\r\n        loans[_loanId].remainingAmount = 0;\r\n\r\n        liquidityAvailable = liquidityAvailable + loans[_loanId].loanAmount; // add back just principle amount not the interest earned on the loan \r\n     \r\n        emit LogLoanPaid(msg.sender, _loanId, msg.value, loans[_loanId].remainingAmount);\r\n\r\n        emit LogLiquidityAvailable(liquidityAvailable);\r\n    }\r\n\r\n    //method for borrowers to to pay monthly deposit\r\n    function payLoanMonthlyDeposit(uint _loanId) external payable \r\n    {\r\n        require(loans[_loanId].status == LoanStatus.ACTIVE, \"Loan status must be Active\");\r\n\r\n        require(msg.value >= loans[_loanId].monthlyDeposit, \"You must deposit amount atleast the monthly deposit amount \");\r\n\r\n        require(msg.value <= loans[_loanId].fullAmount, \"Your deposit amount exceeds your loan amount\");\r\n\r\n        require(msg.sender == loans[_loanId].borrower, \"You must be the assigned borrower for this loan\");\r\n        \r\n        (bool success, ) = payable(address(this)).call{value: msg.value}(\"\");\r\n\r\n        require(success, \"Error: Transfer failed.\");\r\n\r\n        loans[_loanId].remainingAmount = loans[_loanId].remainingAmount - msg.value;\r\n\r\n        emit LogLoanDeposit(_loanId, msg.sender, msg.value, loans[_loanId].remainingAmount);\r\n\r\n        if(loans[_loanId].remainingAmount == 0)\r\n        {\r\n            loans[_loanId].status = LoanStatus.REPAID;\r\n\r\n            emit LogLoanPaid(msg.sender, _loanId, msg.value, loans[_loanId].remainingAmount);\r\n        }\r\n\r\n        liquidityAvailable = liquidityAvailable + (msg.value - loans[_loanId].interestAmountPerMonth); // update liquidity pool back subtracting the interest per month;\r\n\r\n        emit LogLiquidityAvailable(liquidityAvailable);\r\n    }\r\n\r\n     // to do function to calculate full amount\r\n    function calculateInterestEarnedPerDay (uint _totalInterestAmount, uint  _lendingDurationInYears) internal pure returns (uint) {\r\n\r\n        return ((_totalInterestAmount) /(365 * _lendingDurationInYears)) ;\r\n    }\r\n\r\n    // Lender methods\r\n    function createLender(uint _lendingDurationInYears) external payable returns (uint)\r\n    {\r\n        require(msg.value >0, \"Please enter a valid amount to lend\");\r\n\r\n        require(keccak256(abi.encodePacked(getAccountType(msg.sender))) != keccak256(abi.encodePacked(\"borrower\")), \"Sorry, you can either be an active loaner or a lender at a given time.\");\r\n       \r\n        uint lenderId = lenders.length;\r\n\r\n        uint rateOfReturn =   lendingReturnRates[_lendingDurationInYears];\r\n\r\n        uint interestAmount = (msg.value * rateOfReturn)/100;\r\n\r\n        uint interestEarnedPerDay = calculateInterestEarnedPerDay(interestAmount, _lendingDurationInYears);\r\n\r\n        (bool success, ) = payable(address(this)).call{value: msg.value}(\"\");\r\n\r\n        uint lendingDurationInSecs = _lendingDurationInYears * 365 * 24 * 60 * 60;\r\n\r\n        require(success, \"Error: Transfer failed.\");\r\n\r\n        lenders.push(\r\n            Lend(\r\n            lenderId,\r\n            msg.sender,\r\n            msg.value,\r\n            rateOfReturn,\r\n            interestEarnedPerDay,\r\n            block.timestamp,\r\n            lendingDurationInSecs,\r\n            LenderStatus.ACTIVE,  \r\n            block.timestamp \r\n            )\r\n        );\r\n\r\n        liquidityAvailable = liquidityAvailable + (msg.value - interestAmount); \r\n\r\n        emit LogLenderCreation(lenderId, msg.sender, msg.value, lenders[lenderId].rateOfReturn, lenders[lenderId].interestEarnedPerDay, lenders[lenderId].durationInSecs, lenders[lenderId].startTimeInSecs);\r\n\r\n        emit LogLiquidityAvailable(liquidityAvailable);\r\n\r\n        return lenderId;\r\n    }\r\n\r\n    //method  for redeeming interest for lenderers\r\n    function redeemLendersInterest(uint _lenderId) external payable nonReentrant {\r\n\r\n        require(msg.sender == lenders[_lenderId].lender, \"You must be the assigned lender\");\r\n\r\n        require((lenders[_lenderId].durationInSecs + lenders[_lenderId].startTimeInSecs) >= block.timestamp, \"This lending fund has matured, please request to recieve the funds back\");\r\n\r\n        uint noOfInterestDayAccumulated = (block.timestamp - lenders[_lenderId].latestTimeOfInterestRedeemedInSecs)/ (24 * 60 * 60);\r\n\r\n        require(noOfInterestDayAccumulated >= 1, \"interest is earned in 24 hours, please check back later\");\r\n\r\n        uint interestEarned = lenders[_lenderId].interestEarnedPerDay * noOfInterestDayAccumulated;\r\n\r\n        // update latest date of interest redeemed \r\n\r\n        lenders[_lenderId].latestTimeOfInterestRedeemedInSecs = lenders[_lenderId].latestTimeOfInterestRedeemedInSecs + ( noOfInterestDayAccumulated * 24 * 60 * 60); // add a day\r\n\r\n        (bool success, ) = msg.sender.call{value: interestEarned}(\"\");\r\n\r\n        require(success, \"Error: Transfer failed.\");\r\n\r\n        emit LogLenderInterestRedemption( _lenderId, lenders[_lenderId].lender, interestEarned,  lenders[_lenderId].latestTimeOfInterestRedeemedInSecs); \r\n\r\n        emit LogLiquidityAvailable(liquidityAvailable);\r\n    }\r\n\r\n    // method to transfer back locked amount for lenders after the duration is complete\r\n    function retrieveLendersFund(uint _lenderId) external payable nonReentrant{\r\n\r\n        require(msg.sender == lenders[_lenderId].lender, \"You must be the assigned lender\");\r\n\r\n        require(lenders[_lenderId].status == LenderStatus.ACTIVE, \"lending fund is not active\" );\r\n\r\n        require((lenders[_lenderId].durationInSecs + lenders[_lenderId].startTimeInSecs) <= block.timestamp, \"lending fund is not matured yet\" );\r\n\r\n        uint interestNotRedeemed = (lenders[_lenderId].interestEarnedPerDay * ((lenders[_lenderId].durationInSecs - (lenders[_lenderId].latestTimeOfInterestRedeemedInSecs - lenders[_lenderId].startTimeInSecs ))/ (24 * 60 * 60)));\r\n\r\n        lenders[_lenderId].status = LenderStatus.MATURED;\r\n        \r\n        liquidityAvailable = liquidityAvailable - lenders[_lenderId].lendingAmount; //update liquidity available \r\n\r\n        uint totalAmountToRefund = interestNotRedeemed + lenders[_lenderId].lendingAmount;\r\n\r\n        (bool success, ) = msg.sender.call{value: totalAmountToRefund}(\"\");\r\n\r\n        require(success, \"Error: Transfer failed.\"); \r\n\r\n        emit LogLiquidityAvailable(liquidityAvailable);\r\n\r\n        emit LogLenderMatured(_lenderId, lenders[_lenderId].lender, lenders[_lenderId].lendingAmount, interestNotRedeemed);\r\n    }\r\n\r\n}",
  "sourcePath": "C:\\Users\\chand\\Desktop\\newnft\\contracts\\LendBorrowContract.sol",
  "compiler": {
    "name": "solc",
    "version": "0.8.21+commit.d9974bed.Emscripten.clang"
  },
  "schemaVersion": "3.4.14",
  "updatedAt": "2023-10-19T13:09:07.720Z",
  "networkType": "ethereum",
  "devdoc": {
    "kind": "dev",
    "methods": {
      "owner()": {
        "details": "Returns the address of the current owner."
      },
      "renounceOwnership()": {
        "details": "Leaves the contract without owner. It will not be possible to call `onlyOwner` functions. Can only be called by the current owner. NOTE: Renouncing ownership will leave the contract without an owner, thereby disabling any functionality that is only available to the owner."
      },
      "transferOwnership(address)": {
        "details": "Transfers ownership of the contract to a new account (`newOwner`). Can only be called by the current owner."
      }
    },
    "version": 1
  },
  "userdoc": {
    "kind": "user",
    "methods": {},
    "version": 1
  }
}