{
  "contractName": "TestNft",
  "abi": [
    {
      "inputs": [
        {
          "internalType": "address",
          "name": "lendBorrowContract",
          "type": "address"
        }
      ],
      "stateMutability": "nonpayable",
      "type": "constructor"
    },
    {
      "anonymous": false,
      "inputs": [
        {
          "indexed": true,
          "internalType": "address",
          "name": "owner",
          "type": "address"
        },
        {
          "indexed": true,
          "internalType": "address",
          "name": "approved",
          "type": "address"
        },
        {
          "indexed": true,
          "internalType": "uint256",
          "name": "tokenId",
          "type": "uint256"
        }
      ],
      "name": "Approval",
      "type": "event"
    },
    {
      "anonymous": false,
      "inputs": [
        {
          "indexed": true,
          "internalType": "address",
          "name": "owner",
          "type": "address"
        },
        {
          "indexed": true,
          "internalType": "address",
          "name": "operator",
          "type": "address"
        },
        {
          "indexed": false,
          "internalType": "bool",
          "name": "approved",
          "type": "bool"
        }
      ],
      "name": "ApprovalForAll",
      "type": "event"
    },
    {
      "anonymous": false,
      "inputs": [
        {
          "indexed": false,
          "internalType": "uint256",
          "name": "_fromTokenId",
          "type": "uint256"
        },
        {
          "indexed": false,
          "internalType": "uint256",
          "name": "_toTokenId",
          "type": "uint256"
        }
      ],
      "name": "BatchMetadataUpdate",
      "type": "event"
    },
    {
      "anonymous": false,
      "inputs": [
        {
          "indexed": false,
          "internalType": "uint256",
          "name": "_tokenId",
          "type": "uint256"
        }
      ],
      "name": "MetadataUpdate",
      "type": "event"
    },
    {
      "anonymous": false,
      "inputs": [
        {
          "indexed": true,
          "internalType": "address",
          "name": "from",
          "type": "address"
        },
        {
          "indexed": true,
          "internalType": "address",
          "name": "to",
          "type": "address"
        },
        {
          "indexed": true,
          "internalType": "uint256",
          "name": "tokenId",
          "type": "uint256"
        }
      ],
      "name": "Transfer",
      "type": "event"
    },
    {
      "inputs": [
        {
          "internalType": "address",
          "name": "to",
          "type": "address"
        },
        {
          "internalType": "uint256",
          "name": "tokenId",
          "type": "uint256"
        }
      ],
      "name": "approve",
      "outputs": [],
      "stateMutability": "nonpayable",
      "type": "function"
    },
    {
      "inputs": [
        {
          "internalType": "address",
          "name": "owner",
          "type": "address"
        }
      ],
      "name": "balanceOf",
      "outputs": [
        {
          "internalType": "uint256",
          "name": "",
          "type": "uint256"
        }
      ],
      "stateMutability": "view",
      "type": "function",
      "constant": true
    },
    {
      "inputs": [
        {
          "internalType": "uint256",
          "name": "tokenId",
          "type": "uint256"
        }
      ],
      "name": "getApproved",
      "outputs": [
        {
          "internalType": "address",
          "name": "",
          "type": "address"
        }
      ],
      "stateMutability": "view",
      "type": "function",
      "constant": true
    },
    {
      "inputs": [
        {
          "internalType": "address",
          "name": "owner",
          "type": "address"
        },
        {
          "internalType": "address",
          "name": "operator",
          "type": "address"
        }
      ],
      "name": "isApprovedForAll",
      "outputs": [
        {
          "internalType": "bool",
          "name": "",
          "type": "bool"
        }
      ],
      "stateMutability": "view",
      "type": "function",
      "constant": true
    },
    {
      "inputs": [],
      "name": "name",
      "outputs": [
        {
          "internalType": "string",
          "name": "",
          "type": "string"
        }
      ],
      "stateMutability": "view",
      "type": "function",
      "constant": true
    },
    {
      "inputs": [
        {
          "internalType": "uint256",
          "name": "tokenId",
          "type": "uint256"
        }
      ],
      "name": "ownerOf",
      "outputs": [
        {
          "internalType": "address",
          "name": "",
          "type": "address"
        }
      ],
      "stateMutability": "view",
      "type": "function",
      "constant": true
    },
    {
      "inputs": [
        {
          "internalType": "address",
          "name": "from",
          "type": "address"
        },
        {
          "internalType": "address",
          "name": "to",
          "type": "address"
        },
        {
          "internalType": "uint256",
          "name": "tokenId",
          "type": "uint256"
        }
      ],
      "name": "safeTransferFrom",
      "outputs": [],
      "stateMutability": "nonpayable",
      "type": "function"
    },
    {
      "inputs": [
        {
          "internalType": "address",
          "name": "from",
          "type": "address"
        },
        {
          "internalType": "address",
          "name": "to",
          "type": "address"
        },
        {
          "internalType": "uint256",
          "name": "tokenId",
          "type": "uint256"
        },
        {
          "internalType": "bytes",
          "name": "data",
          "type": "bytes"
        }
      ],
      "name": "safeTransferFrom",
      "outputs": [],
      "stateMutability": "nonpayable",
      "type": "function"
    },
    {
      "inputs": [
        {
          "internalType": "address",
          "name": "operator",
          "type": "address"
        },
        {
          "internalType": "bool",
          "name": "approved",
          "type": "bool"
        }
      ],
      "name": "setApprovalForAll",
      "outputs": [],
      "stateMutability": "nonpayable",
      "type": "function"
    },
    {
      "inputs": [],
      "name": "symbol",
      "outputs": [
        {
          "internalType": "string",
          "name": "",
          "type": "string"
        }
      ],
      "stateMutability": "view",
      "type": "function",
      "constant": true
    },
    {
      "inputs": [
        {
          "internalType": "uint256",
          "name": "index",
          "type": "uint256"
        }
      ],
      "name": "tokenByIndex",
      "outputs": [
        {
          "internalType": "uint256",
          "name": "",
          "type": "uint256"
        }
      ],
      "stateMutability": "view",
      "type": "function",
      "constant": true
    },
    {
      "inputs": [
        {
          "internalType": "address",
          "name": "owner",
          "type": "address"
        },
        {
          "internalType": "uint256",
          "name": "index",
          "type": "uint256"
        }
      ],
      "name": "tokenOfOwnerByIndex",
      "outputs": [
        {
          "internalType": "uint256",
          "name": "",
          "type": "uint256"
        }
      ],
      "stateMutability": "view",
      "type": "function",
      "constant": true
    },
    {
      "inputs": [],
      "name": "totalSupply",
      "outputs": [
        {
          "internalType": "uint256",
          "name": "",
          "type": "uint256"
        }
      ],
      "stateMutability": "view",
      "type": "function",
      "constant": true
    },
    {
      "inputs": [
        {
          "internalType": "address",
          "name": "from",
          "type": "address"
        },
        {
          "internalType": "address",
          "name": "to",
          "type": "address"
        },
        {
          "internalType": "uint256",
          "name": "tokenId",
          "type": "uint256"
        }
      ],
      "name": "transferFrom",
      "outputs": [],
      "stateMutability": "nonpayable",
      "type": "function"
    },
    {
      "inputs": [
        {
          "internalType": "string",
          "name": "_tokenURI",
          "type": "string"
        }
      ],
      "name": "mint",
      "outputs": [],
      "stateMutability": "nonpayable",
      "type": "function"
    },
    {
      "inputs": [
        {
          "internalType": "uint256",
          "name": "tokenId",
          "type": "uint256"
        }
      ],
      "name": "tokenURI",
      "outputs": [
        {
          "internalType": "string",
          "name": "",
          "type": "string"
        }
      ],
      "stateMutability": "view",
      "type": "function",
      "constant": true
    },
    {
      "inputs": [
        {
          "internalType": "bytes4",
          "name": "interfaceId",
          "type": "bytes4"
        }
      ],
      "name": "supportsInterface",
      "outputs": [
        {
          "internalType": "bool",
          "name": "",
          "type": "bool"
        }
      ],
      "stateMutability": "view",
      "type": "function",
      "constant": true
    }
  ],
  "bytecode": "0x608060405234801562000010575f80fd5b506040516200385338038062003853833981810160405281019062000036919062000173565b6040518060400160405280600781526020017f546573744e6674000000000000000000000000000000000000000000000000008152506040518060400160405280600481526020017f7465737400000000000000000000000000000000000000000000000000000000815250815f9081620000b2919062000407565b508060019081620000c4919062000407565b50505080600b5f6101000a81548173ffffffffffffffffffffffffffffffffffffffff021916908373ffffffffffffffffffffffffffffffffffffffff16021790555050620004eb565b5f80fd5b5f73ffffffffffffffffffffffffffffffffffffffff82169050919050565b5f6200013d8262000112565b9050919050565b6200014f8162000131565b81146200015a575f80fd5b50565b5f815190506200016d8162000144565b92915050565b5f602082840312156200018b576200018a6200010e565b5b5f6200019a848285016200015d565b91505092915050565b5f81519050919050565b7f4e487b71000000000000000000000000000000000000000000000000000000005f52604160045260245ffd5b7f4e487b71000000000000000000000000000000000000000000000000000000005f52602260045260245ffd5b5f60028204905060018216806200021f57607f821691505b602082108103620002355762000234620001da565b5b50919050565b5f819050815f5260205f209050919050565b5f6020601f8301049050919050565b5f82821b905092915050565b5f60088302620002997fffffffffffffffffffffffffffffffffffffffffffffffffffffffffffffffff826200025c565b620002a586836200025c565b95508019841693508086168417925050509392505050565b5f819050919050565b5f819050919050565b5f620002ef620002e9620002e384620002bd565b620002c6565b620002bd565b9050919050565b5f819050919050565b6200030a83620002cf565b620003226200031982620002f6565b84845462000268565b825550505050565b5f90565b620003386200032a565b62000345818484620002ff565b505050565b5b818110156200036c57620003605f826200032e565b6001810190506200034b565b5050565b601f821115620003bb5762000385816200023b565b62000390846200024d565b81016020851015620003a0578190505b620003b8620003af856200024d565b8301826200034a565b50505b505050565b5f82821c905092915050565b5f620003dd5f1984600802620003c0565b1980831691505092915050565b5f620003f78383620003cc565b9150826002028217905092915050565b6200041282620001a3565b67ffffffffffffffff8111156200042e576200042d620001ad565b5b6200043a825462000207565b6200044782828562000370565b5f60209050601f8311600181146200047d575f841562000468578287015190505b620004748582620003ea565b865550620004e3565b601f1984166200048d866200023b565b5f5b82811015620004b6578489015182556001820191506020850194506020810190506200048f565b86831015620004d65784890151620004d2601f891682620003cc565b8355505b6001600288020188555050505b505050505050565b61335a80620004f95f395ff3fe608060405234801561000f575f80fd5b5060043610610109575f3560e01c80634f6ccce7116100a0578063a22cb4651161006f578063a22cb465146102db578063b88d4fde146102f7578063c87b56dd14610313578063d85d3d2714610343578063e985e9c51461035f57610109565b80634f6ccce71461022d5780636352211e1461025d57806370a082311461028d57806395d89b41146102bd57610109565b806318160ddd116100dc57806318160ddd146101a757806323b872dd146101c55780632f745c59146101e157806342842e0e1461021157610109565b806301ffc9a71461010d57806306fdde031461013d578063081812fc1461015b578063095ea7b31461018b575b5f80fd5b61012760048036038101906101229190612082565b61038f565b60405161013491906120c7565b60405180910390f35b6101456103a0565b604051610152919061216a565b60405180910390f35b610175600480360381019061017091906121bd565b61042f565b6040516101829190612227565b60405180910390f35b6101a560048036038101906101a0919061226a565b610471565b005b6101af610587565b6040516101bc91906122b7565b60405180910390f35b6101df60048036038101906101da91906122d0565b610593565b005b6101fb60048036038101906101f6919061226a565b6105f3565b60405161020891906122b7565b60405180910390f35b61022b600480360381019061022691906122d0565b610693565b005b610247600480360381019061024291906121bd565b6106b2565b60405161025491906122b7565b60405180910390f35b610277600480360381019061027291906121bd565b610720565b6040516102849190612227565b60405180910390f35b6102a760048036038101906102a29190612320565b6107a4565b6040516102b491906122b7565b60405180910390f35b6102c5610858565b6040516102d2919061216a565b60405180910390f35b6102f560048036038101906102f09190612375565b6108e8565b005b610311600480360381019061030c91906124df565b6108fe565b005b61032d600480360381019061032891906121bd565b610960565b60405161033a919061216a565b60405180910390f35b61035d600480360381019061035891906125fd565b610972565b005b61037960048036038101906103749190612644565b6109cc565b60405161038691906120c7565b60405180910390f35b5f61039982610a5a565b9050919050565b60605f80546103ae906126af565b80601f01602080910402602001604051908101604052809291908181526020018280546103da906126af565b80156104255780601f106103fc57610100808354040283529160200191610425565b820191905f5260205f20905b81548152906001019060200180831161040857829003601f168201915b5050505050905090565b5f61043982610aba565b60045f8381526020019081526020015f205f9054906101000a900473ffffffffffffffffffffffffffffffffffffffff169050919050565b5f61047b82610720565b90508073ffffffffffffffffffffffffffffffffffffffff168373ffffffffffffffffffffffffffffffffffffffff16036104eb576040517f08c379a00000000000000000000000000000000000000000000000000000000081526004016104e29061274f565b60405180910390fd5b8073ffffffffffffffffffffffffffffffffffffffff1661050a610b05565b73ffffffffffffffffffffffffffffffffffffffff161480610539575061053881610533610b05565b6109cc565b5b610578576040517f08c379a000000000000000000000000000000000000000000000000000000000815260040161056f906127dd565b60405180910390fd5b6105828383610b0c565b505050565b5f600880549050905090565b6105a461059e610b05565b82610bc2565b6105e3576040517f08c379a00000000000000000000000000000000000000000000000000000000081526004016105da9061286b565b60405180910390fd5b6105ee838383610c56565b505050565b5f6105fd836107a4565b821061063e576040517f08c379a0000000000000000000000000000000000000000000000000000000008152600401610635906128f9565b60405180910390fd5b60065f8473ffffffffffffffffffffffffffffffffffffffff1673ffffffffffffffffffffffffffffffffffffffff1681526020019081526020015f205f8381526020019081526020015f2054905092915050565b6106ad83838360405180602001604052805f8152506108fe565b505050565b5f6106bb610587565b82106106fc576040517f08c379a00000000000000000000000000000000000000000000000000000000081526004016106f390612987565b60405180910390fd5b600882815481106107105761070f6129a5565b5b905f5260205f2001549050919050565b5f8061072b83610f42565b90505f73ffffffffffffffffffffffffffffffffffffffff168173ffffffffffffffffffffffffffffffffffffffff160361079b576040517f08c379a000000000000000000000000000000000000000000000000000000000815260040161079290612a1c565b60405180910390fd5b80915050919050565b5f8073ffffffffffffffffffffffffffffffffffffffff168273ffffffffffffffffffffffffffffffffffffffff1603610813576040517f08c379a000000000000000000000000000000000000000000000000000000000815260040161080a90612aaa565b60405180910390fd5b60035f8373ffffffffffffffffffffffffffffffffffffffff1673ffffffffffffffffffffffffffffffffffffffff1681526020019081526020015f20549050919050565b606060018054610867906126af565b80601f0160208091040260200160405190810160405280929190818152602001828054610893906126af565b80156108de5780601f106108b5576101008083540402835291602001916108de565b820191905f5260205f20905b8154815290600101906020018083116108c157829003601f168201915b5050505050905090565b6108fa6108f3610b05565b8383610f7b565b5050565b61090f610909610b05565b83610bc2565b61094e576040517f08c379a00000000000000000000000000000000000000000000000000000000081526004016109459061286b565b60405180910390fd5b61095a848484846110e2565b50505050565b606061096b8261113e565b9050919050565b61097c600c611248565b5f610987600c61125c565b90506109933382611268565b6109be600b5f9054906101000a900473ffffffffffffffffffffffffffffffffffffffff1682610471565b6109c88183611285565b5050565b5f60055f8473ffffffffffffffffffffffffffffffffffffffff1673ffffffffffffffffffffffffffffffffffffffff1681526020019081526020015f205f8373ffffffffffffffffffffffffffffffffffffffff1673ffffffffffffffffffffffffffffffffffffffff1681526020019081526020015f205f9054906101000a900460ff16905092915050565b5f634906490660e01b7bffffffffffffffffffffffffffffffffffffffffffffffffffffffff1916827bffffffffffffffffffffffffffffffffffffffffffffffffffffffff19161480610ab35750610ab282611327565b5b9050919050565b610ac3816113a0565b610b02576040517f08c379a0000000000000000000000000000000000000000000000000000000008152600401610af990612a1c565b60405180910390fd5b50565b5f33905090565b8160045f8381526020019081526020015f205f6101000a81548173ffffffffffffffffffffffffffffffffffffffff021916908373ffffffffffffffffffffffffffffffffffffffff160217905550808273ffffffffffffffffffffffffffffffffffffffff16610b7c83610720565b73ffffffffffffffffffffffffffffffffffffffff167f8c5be1e5ebec7d5bd14f71427d1e84f3dd0314c0f7b2291e5b200ac8c7c3b92560405160405180910390a45050565b5f80610bcd83610720565b90508073ffffffffffffffffffffffffffffffffffffffff168473ffffffffffffffffffffffffffffffffffffffff161480610c0f5750610c0e81856109cc565b5b80610c4d57508373ffffffffffffffffffffffffffffffffffffffff16610c358461042f565b73ffffffffffffffffffffffffffffffffffffffff16145b91505092915050565b8273ffffffffffffffffffffffffffffffffffffffff16610c7682610720565b73ffffffffffffffffffffffffffffffffffffffff1614610ccc576040517f08c379a0000000000000000000000000000000000000000000000000000000008152600401610cc390612b38565b60405180910390fd5b5f73ffffffffffffffffffffffffffffffffffffffff168273ffffffffffffffffffffffffffffffffffffffff1603610d3a576040517f08c379a0000000000000000000000000000000000000000000000000000000008152600401610d3190612bc6565b60405180910390fd5b610d4783838360016113e0565b8273ffffffffffffffffffffffffffffffffffffffff16610d6782610720565b73ffffffffffffffffffffffffffffffffffffffff1614610dbd576040517f08c379a0000000000000000000000000000000000000000000000000000000008152600401610db490612b38565b60405180910390fd5b60045f8281526020019081526020015f205f6101000a81549073ffffffffffffffffffffffffffffffffffffffff0219169055600160035f8573ffffffffffffffffffffffffffffffffffffffff1673ffffffffffffffffffffffffffffffffffffffff1681526020019081526020015f205f8282540392505081905550600160035f8473ffffffffffffffffffffffffffffffffffffffff1673ffffffffffffffffffffffffffffffffffffffff1681526020019081526020015f205f82825401925050819055508160025f8381526020019081526020015f205f6101000a81548173ffffffffffffffffffffffffffffffffffffffff021916908373ffffffffffffffffffffffffffffffffffffffff160217905550808273ffffffffffffffffffffffffffffffffffffffff168473ffffffffffffffffffffffffffffffffffffffff167fddf252ad1be2c89b69c2b068fc378daa952ba7f163c4a11628f55a4df523b3ef60405160405180910390a4610f3d83838360016113f2565b505050565b5f60025f8381526020019081526020015f205f9054906101000a900473ffffffffffffffffffffffffffffffffffffffff169050919050565b8173ffffffffffffffffffffffffffffffffffffffff168373ffffffffffffffffffffffffffffffffffffffff1603610fe9576040517f08c379a0000000000000000000000000000000000000000000000000000000008152600401610fe090612c2e565b60405180910390fd5b8060055f8573ffffffffffffffffffffffffffffffffffffffff1673ffffffffffffffffffffffffffffffffffffffff1681526020019081526020015f205f8473ffffffffffffffffffffffffffffffffffffffff1673ffffffffffffffffffffffffffffffffffffffff1681526020019081526020015f205f6101000a81548160ff0219169083151502179055508173ffffffffffffffffffffffffffffffffffffffff168373ffffffffffffffffffffffffffffffffffffffff167f17307eab39ab6107e8899845ad3d59bd9653f200f220920489ca2b5937696c31836040516110d591906120c7565b60405180910390a3505050565b6110ed848484610c56565b6110f9848484846113f8565b611138576040517f08c379a000000000000000000000000000000000000000000000000000000000815260040161112f90612cbc565b60405180910390fd5b50505050565b606061114982610aba565b5f600a5f8481526020019081526020015f208054611166906126af565b80601f0160208091040260200160405190810160405280929190818152602001828054611192906126af565b80156111dd5780601f106111b4576101008083540402835291602001916111dd565b820191905f5260205f20905b8154815290600101906020018083116111c057829003601f168201915b505050505090505f6111ed61157a565b90505f815103611201578192505050611243565b5f8251111561123557808260405160200161121d929190612d14565b60405160208183030381529060405292505050611243565b61123e84611590565b925050505b919050565b6001815f015f828254019250508190555050565b5f815f01549050919050565b611281828260405180602001604052805f8152506115f5565b5050565b61128e826113a0565b6112cd576040517f08c379a00000000000000000000000000000000000000000000000000000000081526004016112c490612da7565b60405180910390fd5b80600a5f8481526020019081526020015f2090816112eb9190612f62565b507ff8e1a15aba9398e019f0b49df1a4fde98ee17ae345cb5f6b5e2c27f5033e8ce78260405161131b91906122b7565b60405180910390a15050565b5f7f780e9d63000000000000000000000000000000000000000000000000000000007bffffffffffffffffffffffffffffffffffffffffffffffffffffffff1916827bffffffffffffffffffffffffffffffffffffffffffffffffffffffff1916148061139957506113988261164f565b5b9050919050565b5f8073ffffffffffffffffffffffffffffffffffffffff166113c183610f42565b73ffffffffffffffffffffffffffffffffffffffff1614159050919050565b6113ec84848484611730565b50505050565b50505050565b5f6114188473ffffffffffffffffffffffffffffffffffffffff1661188b565b1561156d578373ffffffffffffffffffffffffffffffffffffffff1663150b7a02611441610b05565b8786866040518563ffffffff1660e01b81526004016114639493929190613083565b6020604051808303815f875af192505050801561149e57506040513d601f19601f8201168201806040525081019061149b91906130e1565b60015b61151d573d805f81146114cc576040519150601f19603f3d011682016040523d82523d5f602084013e6114d1565b606091505b505f815103611515576040517f08c379a000000000000000000000000000000000000000000000000000000000815260040161150c90612cbc565b60405180910390fd5b805181602001fd5b63150b7a0260e01b7bffffffffffffffffffffffffffffffffffffffffffffffffffffffff1916817bffffffffffffffffffffffffffffffffffffffffffffffffffffffff191614915050611572565b600190505b949350505050565b606060405180602001604052805f815250905090565b606061159b82610aba565b5f6115a461157a565b90505f8151116115c25760405180602001604052805f8152506115ed565b806115cc846118ad565b6040516020016115dd929190612d14565b6040516020818303038152906040525b915050919050565b6115ff8383611977565b61160b5f8484846113f8565b61164a576040517f08c379a000000000000000000000000000000000000000000000000000000000815260040161164190612cbc565b60405180910390fd5b505050565b5f7f80ac58cd000000000000000000000000000000000000000000000000000000007bffffffffffffffffffffffffffffffffffffffffffffffffffffffff1916827bffffffffffffffffffffffffffffffffffffffffffffffffffffffff1916148061171957507f5b5e139f000000000000000000000000000000000000000000000000000000007bffffffffffffffffffffffffffffffffffffffffffffffffffffffff1916827bffffffffffffffffffffffffffffffffffffffffffffffffffffffff1916145b80611729575061172882611b8a565b5b9050919050565b61173c84848484611bf3565b6001811115611780576040517f08c379a00000000000000000000000000000000000000000000000000000000081526004016117779061317c565b60405180910390fd5b5f8290505f73ffffffffffffffffffffffffffffffffffffffff168573ffffffffffffffffffffffffffffffffffffffff16036117c5576117c081611bf9565b611804565b8373ffffffffffffffffffffffffffffffffffffffff168573ffffffffffffffffffffffffffffffffffffffff1614611803576118028582611c3d565b5b5b5f73ffffffffffffffffffffffffffffffffffffffff168473ffffffffffffffffffffffffffffffffffffffff16036118455761184081611d93565b611884565b8473ffffffffffffffffffffffffffffffffffffffff168473ffffffffffffffffffffffffffffffffffffffff1614611883576118828482611e53565b5b5b5050505050565b5f808273ffffffffffffffffffffffffffffffffffffffff163b119050919050565b60605f60016118bb84611ecb565b0190505f8167ffffffffffffffff8111156118d9576118d86123bb565b5b6040519080825280601f01601f19166020018201604052801561190b5781602001600182028036833780820191505090505b5090505f82602001820190505b60011561196c578080600190039150507f3031323334353637383961626364656600000000000000000000000000000000600a86061a8153600a85816119615761196061319a565b5b0494505f8503611918575b819350505050919050565b5f73ffffffffffffffffffffffffffffffffffffffff168273ffffffffffffffffffffffffffffffffffffffff16036119e5576040517f08c379a00000000000000000000000000000000000000000000000000000000081526004016119dc90613211565b60405180910390fd5b6119ee816113a0565b15611a2e576040517f08c379a0000000000000000000000000000000000000000000000000000000008152600401611a2590613279565b60405180910390fd5b611a3b5f838360016113e0565b611a44816113a0565b15611a84576040517f08c379a0000000000000000000000000000000000000000000000000000000008152600401611a7b90613279565b60405180910390fd5b600160035f8473ffffffffffffffffffffffffffffffffffffffff1673ffffffffffffffffffffffffffffffffffffffff1681526020019081526020015f205f82825401925050819055508160025f8381526020019081526020015f205f6101000a81548173ffffffffffffffffffffffffffffffffffffffff021916908373ffffffffffffffffffffffffffffffffffffffff160217905550808273ffffffffffffffffffffffffffffffffffffffff165f73ffffffffffffffffffffffffffffffffffffffff167fddf252ad1be2c89b69c2b068fc378daa952ba7f163c4a11628f55a4df523b3ef60405160405180910390a4611b865f838360016113f2565b5050565b5f7f01ffc9a7000000000000000000000000000000000000000000000000000000007bffffffffffffffffffffffffffffffffffffffffffffffffffffffff1916827bffffffffffffffffffffffffffffffffffffffffffffffffffffffff1916149050919050565b50505050565b60088054905060095f8381526020019081526020015f2081905550600881908060018154018082558091505060019003905f5260205f20015f909190919091505550565b5f6001611c49846107a4565b611c5391906132c4565b90505f60075f8481526020019081526020015f20549050818114611d2a575f60065f8673ffffffffffffffffffffffffffffffffffffffff1673ffffffffffffffffffffffffffffffffffffffff1681526020019081526020015f205f8481526020019081526020015f205490508060065f8773ffffffffffffffffffffffffffffffffffffffff1673ffffffffffffffffffffffffffffffffffffffff1681526020019081526020015f205f8481526020019081526020015f20819055508160075f8381526020019081526020015f2081905550505b60075f8481526020019081526020015f205f905560065f8573ffffffffffffffffffffffffffffffffffffffff1673ffffffffffffffffffffffffffffffffffffffff1681526020019081526020015f205f8381526020019081526020015f205f905550505050565b5f6001600880549050611da691906132c4565b90505f60095f8481526020019081526020015f205490505f60088381548110611dd257611dd16129a5565b5b905f5260205f20015490508060088381548110611df257611df16129a5565b5b905f5260205f2001819055508160095f8381526020019081526020015f208190555060095f8581526020019081526020015f205f90556008805480611e3a57611e396132f7565b5b600190038181905f5260205f20015f9055905550505050565b5f611e5d836107a4565b90508160065f8573ffffffffffffffffffffffffffffffffffffffff1673ffffffffffffffffffffffffffffffffffffffff1681526020019081526020015f205f8381526020019081526020015f20819055508060075f8481526020019081526020015f2081905550505050565b5f805f90507a184f03e93ff9f4daa797ed6e38ed64bf6a1f0100000000000000008310611f27577a184f03e93ff9f4daa797ed6e38ed64bf6a1f0100000000000000008381611f1d57611f1c61319a565b5b0492506040810190505b6d04ee2d6d415b85acef81000000008310611f64576d04ee2d6d415b85acef81000000008381611f5a57611f5961319a565b5b0492506020810190505b662386f26fc100008310611f9357662386f26fc100008381611f8957611f8861319a565b5b0492506010810190505b6305f5e1008310611fbc576305f5e1008381611fb257611fb161319a565b5b0492506008810190505b6127108310611fe1576127108381611fd757611fd661319a565b5b0492506004810190505b606483106120045760648381611ffa57611ff961319a565b5b0492506002810190505b600a8310612013576001810190505b80915050919050565b5f604051905090565b5f80fd5b5f80fd5b5f7fffffffff0000000000000000000000000000000000000000000000000000000082169050919050565b6120618161202d565b811461206b575f80fd5b50565b5f8135905061207c81612058565b92915050565b5f6020828403121561209757612096612025565b5b5f6120a48482850161206e565b91505092915050565b5f8115159050919050565b6120c1816120ad565b82525050565b5f6020820190506120da5f8301846120b8565b92915050565b5f81519050919050565b5f82825260208201905092915050565b5f5b838110156121175780820151818401526020810190506120fc565b5f8484015250505050565b5f601f19601f8301169050919050565b5f61213c826120e0565b61214681856120ea565b93506121568185602086016120fa565b61215f81612122565b840191505092915050565b5f6020820190508181035f8301526121828184612132565b905092915050565b5f819050919050565b61219c8161218a565b81146121a6575f80fd5b50565b5f813590506121b781612193565b92915050565b5f602082840312156121d2576121d1612025565b5b5f6121df848285016121a9565b91505092915050565b5f73ffffffffffffffffffffffffffffffffffffffff82169050919050565b5f612211826121e8565b9050919050565b61222181612207565b82525050565b5f60208201905061223a5f830184612218565b92915050565b61224981612207565b8114612253575f80fd5b50565b5f8135905061226481612240565b92915050565b5f80604083850312156122805761227f612025565b5b5f61228d85828601612256565b925050602061229e858286016121a9565b9150509250929050565b6122b18161218a565b82525050565b5f6020820190506122ca5f8301846122a8565b92915050565b5f805f606084860312156122e7576122e6612025565b5b5f6122f486828701612256565b935050602061230586828701612256565b9250506040612316868287016121a9565b9150509250925092565b5f6020828403121561233557612334612025565b5b5f61234284828501612256565b91505092915050565b612354816120ad565b811461235e575f80fd5b50565b5f8135905061236f8161234b565b92915050565b5f806040838503121561238b5761238a612025565b5b5f61239885828601612256565b92505060206123a985828601612361565b9150509250929050565b5f80fd5b5f80fd5b7f4e487b71000000000000000000000000000000000000000000000000000000005f52604160045260245ffd5b6123f182612122565b810181811067ffffffffffffffff821117156124105761240f6123bb565b5b80604052505050565b5f61242261201c565b905061242e82826123e8565b919050565b5f67ffffffffffffffff82111561244d5761244c6123bb565b5b61245682612122565b9050602081019050919050565b828183375f83830152505050565b5f61248361247e84612433565b612419565b90508281526020810184848401111561249f5761249e6123b7565b5b6124aa848285612463565b509392505050565b5f82601f8301126124c6576124c56123b3565b5b81356124d6848260208601612471565b91505092915050565b5f805f80608085870312156124f7576124f6612025565b5b5f61250487828801612256565b945050602061251587828801612256565b9350506040612526878288016121a9565b925050606085013567ffffffffffffffff81111561254757612546612029565b5b612553878288016124b2565b91505092959194509250565b5f67ffffffffffffffff821115612579576125786123bb565b5b61258282612122565b9050602081019050919050565b5f6125a161259c8461255f565b612419565b9050828152602081018484840111156125bd576125bc6123b7565b5b6125c8848285612463565b509392505050565b5f82601f8301126125e4576125e36123b3565b5b81356125f484826020860161258f565b91505092915050565b5f6020828403121561261257612611612025565b5b5f82013567ffffffffffffffff81111561262f5761262e612029565b5b61263b848285016125d0565b91505092915050565b5f806040838503121561265a57612659612025565b5b5f61266785828601612256565b925050602061267885828601612256565b9150509250929050565b7f4e487b71000000000000000000000000000000000000000000000000000000005f52602260045260245ffd5b5f60028204905060018216806126c657607f821691505b6020821081036126d9576126d8612682565b5b50919050565b7f4552433732313a20617070726f76616c20746f2063757272656e74206f776e655f8201527f7200000000000000000000000000000000000000000000000000000000000000602082015250565b5f6127396021836120ea565b9150612744826126df565b604082019050919050565b5f6020820190508181035f8301526127668161272d565b9050919050565b7f4552433732313a20617070726f76652063616c6c6572206973206e6f7420746f5f8201527f6b656e206f776e6572206f7220617070726f76656420666f7220616c6c000000602082015250565b5f6127c7603d836120ea565b91506127d28261276d565b604082019050919050565b5f6020820190508181035f8301526127f4816127bb565b9050919050565b7f4552433732313a2063616c6c6572206973206e6f7420746f6b656e206f776e655f8201527f72206f7220617070726f76656400000000000000000000000000000000000000602082015250565b5f612855602d836120ea565b9150612860826127fb565b604082019050919050565b5f6020820190508181035f83015261288281612849565b9050919050565b7f455243373231456e756d657261626c653a206f776e657220696e646578206f755f8201527f74206f6620626f756e6473000000000000000000000000000000000000000000602082015250565b5f6128e3602b836120ea565b91506128ee82612889565b604082019050919050565b5f6020820190508181035f830152612910816128d7565b9050919050565b7f455243373231456e756d657261626c653a20676c6f62616c20696e646578206f5f8201527f7574206f6620626f756e64730000000000000000000000000000000000000000602082015250565b5f612971602c836120ea565b915061297c82612917565b604082019050919050565b5f6020820190508181035f83015261299e81612965565b9050919050565b7f4e487b71000000000000000000000000000000000000000000000000000000005f52603260045260245ffd5b7f4552433732313a20696e76616c696420746f6b656e20494400000000000000005f82015250565b5f612a066018836120ea565b9150612a11826129d2565b602082019050919050565b5f6020820190508181035f830152612a33816129fa565b9050919050565b7f4552433732313a2061646472657373207a65726f206973206e6f7420612076615f8201527f6c6964206f776e65720000000000000000000000000000000000000000000000602082015250565b5f612a946029836120ea565b9150612a9f82612a3a565b604082019050919050565b5f6020820190508181035f830152612ac181612a88565b9050919050565b7f4552433732313a207472616e736665722066726f6d20696e636f7272656374205f8201527f6f776e6572000000000000000000000000000000000000000000000000000000602082015250565b5f612b226025836120ea565b9150612b2d82612ac8565b604082019050919050565b5f6020820190508181035f830152612b4f81612b16565b9050919050565b7f4552433732313a207472616e7366657220746f20746865207a65726f206164645f8201527f7265737300000000000000000000000000000000000000000000000000000000602082015250565b5f612bb06024836120ea565b9150612bbb82612b56565b604082019050919050565b5f6020820190508181035f830152612bdd81612ba4565b9050919050565b7f4552433732313a20617070726f766520746f2063616c6c6572000000000000005f82015250565b5f612c186019836120ea565b9150612c2382612be4565b602082019050919050565b5f6020820190508181035f830152612c4581612c0c565b9050919050565b7f4552433732313a207472616e7366657220746f206e6f6e2045524337323152655f8201527f63656976657220696d706c656d656e7465720000000000000000000000000000602082015250565b5f612ca66032836120ea565b9150612cb182612c4c565b604082019050919050565b5f6020820190508181035f830152612cd381612c9a565b9050919050565b5f81905092915050565b5f612cee826120e0565b612cf88185612cda565b9350612d088185602086016120fa565b80840191505092915050565b5f612d1f8285612ce4565b9150612d2b8284612ce4565b91508190509392505050565b7f45524337323155524953746f726167653a2055524920736574206f66206e6f6e5f8201527f6578697374656e7420746f6b656e000000000000000000000000000000000000602082015250565b5f612d91602e836120ea565b9150612d9c82612d37565b604082019050919050565b5f6020820190508181035f830152612dbe81612d85565b9050919050565b5f819050815f5260205f209050919050565b5f6020601f8301049050919050565b5f82821b905092915050565b5f60088302612e217fffffffffffffffffffffffffffffffffffffffffffffffffffffffffffffffff82612de6565b612e2b8683612de6565b95508019841693508086168417925050509392505050565b5f819050919050565b5f612e66612e61612e5c8461218a565b612e43565b61218a565b9050919050565b5f819050919050565b612e7f83612e4c565b612e93612e8b82612e6d565b848454612df2565b825550505050565b5f90565b612ea7612e9b565b612eb2818484612e76565b505050565b5b81811015612ed557612eca5f82612e9f565b600181019050612eb8565b5050565b601f821115612f1a57612eeb81612dc5565b612ef484612dd7565b81016020851015612f03578190505b612f17612f0f85612dd7565b830182612eb7565b50505b505050565b5f82821c905092915050565b5f612f3a5f1984600802612f1f565b1980831691505092915050565b5f612f528383612f2b565b9150826002028217905092915050565b612f6b826120e0565b67ffffffffffffffff811115612f8457612f836123bb565b5b612f8e82546126af565b612f99828285612ed9565b5f60209050601f831160018114612fca575f8415612fb8578287015190505b612fc28582612f47565b865550613029565b601f198416612fd886612dc5565b5f5b82811015612fff57848901518255600182019150602085019450602081019050612fda565b8683101561301c5784890151613018601f891682612f2b565b8355505b6001600288020188555050505b505050505050565b5f81519050919050565b5f82825260208201905092915050565b5f61305582613031565b61305f818561303b565b935061306f8185602086016120fa565b61307881612122565b840191505092915050565b5f6080820190506130965f830187612218565b6130a36020830186612218565b6130b060408301856122a8565b81810360608301526130c2818461304b565b905095945050505050565b5f815190506130db81612058565b92915050565b5f602082840312156130f6576130f5612025565b5b5f613103848285016130cd565b91505092915050565b7f455243373231456e756d657261626c653a20636f6e73656375746976652074725f8201527f616e7366657273206e6f7420737570706f727465640000000000000000000000602082015250565b5f6131666035836120ea565b91506131718261310c565b604082019050919050565b5f6020820190508181035f8301526131938161315a565b9050919050565b7f4e487b71000000000000000000000000000000000000000000000000000000005f52601260045260245ffd5b7f4552433732313a206d696e7420746f20746865207a65726f20616464726573735f82015250565b5f6131fb6020836120ea565b9150613206826131c7565b602082019050919050565b5f6020820190508181035f830152613228816131ef565b9050919050565b7f4552433732313a20746f6b656e20616c7265616479206d696e746564000000005f82015250565b5f613263601c836120ea565b915061326e8261322f565b602082019050919050565b5f6020820190508181035f83015261329081613257565b9050919050565b7f4e487b71000000000000000000000000000000000000000000000000000000005f52601160045260245ffd5b5f6132ce8261218a565b91506132d98361218a565b92508282039050818111156132f1576132f0613297565b5b92915050565b7f4e487b71000000000000000000000000000000000000000000000000000000005f52603160045260245ffdfea26469706673582212205b7a13099b2360bf2aff175fbfac024801ec8dfc0683da74d230653ef95883b064736f6c63430008150033",
  "immutableReferences": {},
  "source": "// SPDX-License-Identifier: MIT\r\npragma solidity ^0.8.0;\r\n\r\nimport \"@openzeppelin/contracts/token/ERC721/ERC721.sol\";\r\nimport \"@openzeppelin/contracts/token/ERC721/extensions/ERC721Enumerable.sol\";\r\nimport \"@openzeppelin/contracts/token/ERC721/extensions/ERC721URIStorage.sol\";\r\nimport \"@openzeppelin/contracts/utils/Counters.sol\";\r\n\r\ncontract TestNft is ERC721, ERC721Enumerable, ERC721URIStorage{\r\n\r\n    using Counters for Counters.Counter;\r\n    address private _lendBorrowContract;\r\n    Counters.Counter private _tokenIds;\r\n\r\n    constructor(address lendBorrowContract) ERC721(\"TestNft\", \"test\") {\r\n        _lendBorrowContract = lendBorrowContract;\r\n    }\r\n\r\n    function mint(string memory _tokenURI) public {\r\n    _tokenIds.increment();\r\n    uint256 newTokenId = _tokenIds.current();\r\n    _safeMint(msg.sender, newTokenId);\r\n    approve(_lendBorrowContract, newTokenId);\r\n    _setTokenURI(newTokenId, _tokenURI);\r\n    }\r\n\r\n    // The following functions are overrides required by Solidity.\r\n\r\n    function _beforeTokenTransfer(address from, address to, uint256 tokenId, uint256 batchId)\r\n    internal\r\n    override(ERC721, ERC721Enumerable)\r\n    {\r\n    super._beforeTokenTransfer(from, to, tokenId, batchId);\r\n    }\r\n\r\n    function _burn(uint256 tokenId) internal override(ERC721, ERC721URIStorage) {\r\n        super._burn(tokenId);\r\n    }\r\n\r\n    function tokenURI(uint256 tokenId)\r\n        public\r\n        view\r\n        override(ERC721, ERC721URIStorage)\r\n        returns (string memory)\r\n    {\r\n        return super.tokenURI(tokenId);\r\n    }\r\n\r\n    function supportsInterface(bytes4 interfaceId)\r\n        public\r\n        view\r\n        override(ERC721, ERC721Enumerable,ERC721URIStorage)\r\n        returns (bool)\r\n    {\r\n        return super.supportsInterface(interfaceId);\r\n    }   \r\n}",
  "sourcePath": "C:\\Users\\chand\\Desktop\\newnft\\contracts\\TestNft.sol",
  "compiler": {
    "name": "solc",
    "version": "0.8.21+commit.d9974bed.Emscripten.clang"
  },
  "schemaVersion": "3.4.14",
  "updatedAt": "2023-10-19T13:09:07.756Z",
  "networkType": "ethereum",
  "devdoc": {
    "events": {
      "Approval(address,address,uint256)": {
        "details": "Emitted when `owner` enables `approved` to manage the `tokenId` token."
      },
      "ApprovalForAll(address,address,bool)": {
        "details": "Emitted when `owner` enables or disables (`approved`) `operator` to manage all of its assets."
      },
      "BatchMetadataUpdate(uint256,uint256)": {
        "details": "This event emits when the metadata of a range of tokens is changed. So that the third-party platforms such as NFT market could timely update the images and related attributes of the NFTs."
      },
      "MetadataUpdate(uint256)": {
        "details": "This event emits when the metadata of a token is changed. So that the third-party platforms such as NFT market could timely update the images and related attributes of the NFT."
      },
      "Transfer(address,address,uint256)": {
        "details": "Emitted when `tokenId` token is transferred from `from` to `to`."
      }
    },
    "kind": "dev",
    "methods": {
      "approve(address,uint256)": {
        "details": "See {IERC721-approve}."
      },
      "balanceOf(address)": {
        "details": "See {IERC721-balanceOf}."
      },
      "getApproved(uint256)": {
        "details": "See {IERC721-getApproved}."
      },
      "isApprovedForAll(address,address)": {
        "details": "See {IERC721-isApprovedForAll}."
      },
      "name()": {
        "details": "See {IERC721Metadata-name}."
      },
      "ownerOf(uint256)": {
        "details": "See {IERC721-ownerOf}."
      },
      "safeTransferFrom(address,address,uint256)": {
        "details": "See {IERC721-safeTransferFrom}."
      },
      "safeTransferFrom(address,address,uint256,bytes)": {
        "details": "See {IERC721-safeTransferFrom}."
      },
      "setApprovalForAll(address,bool)": {
        "details": "See {IERC721-setApprovalForAll}."
      },
      "symbol()": {
        "details": "See {IERC721Metadata-symbol}."
      },
      "tokenByIndex(uint256)": {
        "details": "See {IERC721Enumerable-tokenByIndex}."
      },
      "tokenOfOwnerByIndex(address,uint256)": {
        "details": "See {IERC721Enumerable-tokenOfOwnerByIndex}."
      },
      "totalSupply()": {
        "details": "See {IERC721Enumerable-totalSupply}."
      },
      "transferFrom(address,address,uint256)": {
        "details": "See {IERC721-transferFrom}."
      }
    },
    "version": 1
  },
  "userdoc": {
    "kind": "user",
    "methods": {},
    "version": 1
  }
}